:100000000C94A0000C9486080C9474060C9486083A
:100010000C9486080C9486080C9486080C94860828
:100020000C9486080C9486080C9486080C94860818
:100030000C9486080C9486080C9486080C94860808
:100040000C9486080C9486080C9486080C948608F8
:100050000C9486080C9486080C9486080C948608E8
:100060000C9486080C9486080C94BC030C94F3033F
:100070000C94D8050C9486080C9486080C944E03B6
:100080000C9485030C94B0050C9486080C94860897
:10009000291429168029162918802918291A802937
:1000A0001A291C80291C291E80291E29208029200C
:1000B00029228029222924802924292680292629C9
:1000C00028802928292A80290629140011102806A9
:1000D000284680293229338029332934802934293C
:1000E00035802846288680293529368029362937C3
:1000F000802937293880292A292C00111E292C29EA
:100100002E001120288628C68029382939802939CF
:10011000293A80293A293B8028C6290680293B298B
:100120003C80293C293D80293D293E80292E2930CB
:1001300000112229302932001124280028068000CD
:1001400011241FBECFEFCDBFDFE3DEBFE0E9F0E05B
:1001500041E017C0B591A59135912591059107FD15
:100160000CC095918591EF01F92FE82F05900D9224
:10017000A217B307D9F7FE0104C01D92A217B30757
:10018000E1F7EF33F40731F70E9492040C94C800B2
:04019000F894FFCF11
:1001940053797374656D20706F7765726564206F31
:1001A4006E2E20506C6561736520656E74657220D7
:1001B400796F757220666972737420636F6D6D61F7
:0401C4006E643A002B
:1001C800CF93DF93CDB7DEB70E942A0280E094E098
:1001D80021E0FC01208380E294E0FC01108280E4AD
:1001E80094E029E0FC01208380E694E025E8FC0106
:1001F800208380E894E0FC01108280EA94E021E00A
:10020800FC01208380E094E021E0FC01248380E26B
:1002180094E0FC01148280E494E021E0FC01248352
:1002280080E694E021E0FC01248380E894E0FC016E
:10023800148280EA94E021E0FC01248380E094E0C9
:10024800FC01108A80E094E0FC01118A80E094E0CF
:10025800FC01128A80E094E0FC01138A80E094E0BB
:10026800FC01148A80E094E0FC01158A80E094E0A7
:10027800FC01168A80E094E0FC01178A80E294E091
:10028800FC01108A80E294E0FC01118A80E294E08B
:10029800FC01128A80E294E0FC01138A80E294E077
:1002A800FC01148A80E294E0FC01158A80E294E063
:1002B800FC01168A80E294E0FC01178A80E494E04D
:1002C800FC01108A80E494E0FC01118A80E494E047
:1002D800FC01128A80E494E0FC01138A80E494E033
:1002E800FC01148A80E494E0FC01158A80E494E01F
:1002F800FC01168A80E494E0FC01178A80E694E009
:10030800FC01108A80E694E0FC01118A80E694E002
:10031800FC01128A80E694E0FC01138A80E694E0EE
:10032800FC01148A80E694E0FC01158A80E694E0DA
:10033800FC01168A80E694E0FC01178A80E894E0C4
:10034800FC01108A80E894E0FC01118A80E894E0BE
:10035800FC01128A80E894E0FC01138A80E894E0AA
:10036800FC01148A80E894E0FC01158A80E894E096
:10037800FC01168A80E894E0FC01178A80EA94E080
:10038800FC01108A80EA94E0FC01118A80EA94E07A
:10039800FC01128A80EA94E0FC01138A80EA94E066
:1003A800FC01148A80EA94E0FC01158A80EA94E052
:1003B800FC01168A80EA94E0FC01178A80EE95E039
:1003C800FC01118280EE95E0FC01108280EE95E040
:1003D800FC01148280EE95E0FC01158280EE95E028
:1003E800FC01138280EE95E0FC0112828AE298E01B
:1003F8000E94190782E398E00E942C078AE398E09C
:100408000E943F0782E498E00E9452078AE498E03D
:100418000E94650782E598E00E9478078AE598E0DF
:100428000E948B0782E698E00E949E078AE698E081
:100438000E94B10782E798E00E94C4078AE798E023
:0C0448000E94D7070000DF91CF910895BB
:10045400CF93DF93CDB7DEB72697CDBFDEBF19822A
:1004640012C08981882F90E080579B4F2981222FC9
:1004740030E020573B4FF90120812860FC012083A4
:1004840089818F5F89838981883058F31A8212C0E9
:100494008A81882F90E080559B4F2A81222F30E05B
:1004A40020553B4FF90120812860FC0120838A817B
:1004B4008F5F8A838A81883058F31B8212C08B81B4
:1004C400882F90E0805F9B4F2B81222F30E0205FAC
:1004D4003B4FF90120812860FC0120838B818F5FD1
:1004E4008B838B81883058F31C8212C08C81882FB7
:1004F40090E0805D9B4F2C81222F30E0205D3B4FAC
:10050400F90120812860FC0120838C818F5F8C831A
:100514008C81883058F31D8212C08D81882F90E021
:10052400805B9B4F2D81222F30E0205B3B4FF901F4
:1005340020812860FC0120838D818F5F8D838D81D4
:10054400883058F31E8212C08E81882F90E0805923
:100554009B4F2E81222F30E020593B4FF9012081FF
:100564002860FC0120838E818F5F8E838E8188308A
:1005740058F300002696CDBFDEBFDF91CF910895DA
:10058400CF93DF931F92CDB7DEB780E498E024E7E2
:1005940030E0FC012087318780E498E020EDFC0105
:1005A400258380E498E020ECFC01268380E498E035
:1005B40023E0FC01278380E498E0FC01138680E4B7
:1005C40098E0FC01148680E498E0FC01168680E43F
:1005D40098E0FC01158619828981809333298981E9
:1005E40080933229898180933429898180933629A3
:1005F40089818093352989818093372986E099E21E
:10060400809302289093032800000F90DF91CF91EC
:02061400089547
:10061600CF93DF931F92CDB7DEB780E298E024E751
:1006260030E0FC012087318780E298E020EDFC0174
:10063600258380E298E020ECFC01268380E298E0A6
:1006460023E0FC01278380E298E0FC01138680E228
:1006560098E0FC01148680E298E0FC01168680E2B0
:1006660098E0FC0115861982898180933929898150
:1006760080933829898180933A29898180933C29FE
:10068600898180933B29898180933D2900000F90C1
:06069600DF91CF910895F1
:10069C001F920F9200903F000F9211242F933F93C3
:1006AC004F935F936F937F938F939F93AF93BF936E
:1006BC00EF93FF93CF93DF93CDB7DEB780912A29C9
:1006CC0090912B29892B31F080912A2990912B29FB
:1006DC00FC0109950000DF91CF91FF91EF91BF9143
:1006EC00AF919F918F917F916F915F914F913F91BE
:0E06FC002F910F9000923F000F901F901895C5
:10070A001F920F9200903F000F9211242F933F9354
:10071A004F935F936F937F938F939F93AF93BF93FF
:10072A00EF93FF93CF93DF93CDB7DEB780912C2958
:10073A0090912D29892B31F080912C2990912D2986
:10074A00FC0109950000DF91CF91FF91EF91BF91D4
:10075A00AF919F918F917F916F915F914F913F914F
:0E076A002F910F9000923F000F901F90189556
:100778001F920F9200903F000F9211242F933F93E6
:100788004F935F936F937F938F939F93AF93BF9391
:10079800EF93FF93CF93DF93CDB7DEB780912E29E8
:1007A80090912F29892B31F080912E2990912F2912
:1007B800FC0109950000DF91CF91FF91EF91BF9166
:1007C800AF919F918F917F916F915F914F913F91E1
:0E07D8002F910F9000923F000F901F901895E8
:1007E6001F920F9200903F000F9211242F933F9378
:1007F6004F935F936F937F938F939F93AF93BF9323
:10080600EF93FF93CF93DF93CDB7DEB78091302977
:1008160090913129892B31F080913029909131299D
:10082600FC0109950000DF91CF91FF91EF91BF91F7
:10083600AF919F918F917F916F915F914F913F9172
:0E0846002F910F9000923F000F901F90189579
:10085400CF93DF9300D0CDB7DEB78A83809135295B
:100864008F5F8F7389830000809137298034E1F38F
:100874008981882F90E08A5B974D2A81FC0120832F
:100884008981809335290FB6F8940F928091372986
:100894008F5F809337290F900FBE80E498E020E4A7
:1008A40038E0F90125812062FC01258300000F90C6
:0808B4000F90DF91CF91089530
:1008BC00CF93DF9300D0CDB7DEB78A8380913B29ED
:1008CC008F5F8F738983000080913D298034E1F321
:1008DC008981882F90E08A53974D2A81FC012083CF
:1008EC00898180933B290FB6F8940F9280913D2912
:1008FC008F5F80933D290F900FBE80E298E020E23D
:10090C0038E0F90125812062FC01258300000F905D
:08091C000F90DF91CF910895C7
:10092400CF93DF93CDB7DEB70E9496060E941E08D0
:1009340084E991E40E942C050E94F7078823B1F012
:1009440004C00E9427060E942A040E94F7078823F5
:10095400C1F70E94EA07882349F004C00E940006F8
:100964000E945E040E94EA078823C1F70E94EA07F6
:10097400882311F304C00E9400060E945E040E94B2
:08098400EA078823C1F7D8CF70
:10098C00CF93DF931F92CDB7DEB7809137298823A1
:10099C00C1F0809136298F5F8F7389838981809311
:1009AC00362980E498E02981222F30E02A5B374DEC
:1009BC00F9012081FC012283809137298150809399
:1009CC00372980913729882349F480E498E020E482
:1009DC0038E0F90125812F7DFC01258300000F9063
:0609EC00DF91CF91089598
:1009F200CF93DF931F92CDB7DEB780913D29882335
:100A0200C1F080913C298F5F8F73898389818093A4
:100A12003C2980E298E02981222F30E02A53374D89
:100A2200F9012081FC01228380913D29815080932C
:100A32003D2980913D29882349F480E298E020E213
:100A420038E0F90125812F7DFC01258300000F90FC
:060A5200DF91CF91089531
:100A58000F931F93CF93DF93E0910228F09103281F
:100A6800238121FF1BC08C01D0E0C0E0F8018191F7
:100A78008F016091022870910328DB011896ED918F
:100A8800FC911997882331F00995892B79F3DFEFC9
:100A9800CFEFECCF8AE00995892B19F08FEF9FEF04
:100AA80002C08D2F9C2FDF91CF911F910F91089538
:100AB800CF93DF9300D0CDB7DEB780E498E0FC0198
:100AC80080818983809132298F5F8F738A83809197
:100AD80033299A81981781F08A81809332298A81F3
:100AE800882F90E08A5F974D2981FC0120838091AF
:100AF80034298F5F8093342900000F900F90DF9185
:040B0800CF910895EC
:100B0C00CF93DF9300D0CDB7DEB780E298E0FC0145
:100B1C0080818983809138298F5F8F738A8380913C
:100B2C0039299A81981781F08A81809338298A8192
:100B3C00882F90E08A57974D2981FC012083809162
:100B4C003A298F5F80933A2900000F900F90DF9124
:040B5C00CF91089598
:100B60001F920F9200903F000F9211242F933F93FA
:100B70008F939F93EF93FF93CF93DF93CDB7DEB720
:100B800080E498E020E438E0F90124812064FC014D
:100B900024830000DF91CF91FF91EF919F918F917E
:100BA0003F912F910F9000923F000F901F9018954A
:100BB0001F920F9200903F000F9211242F933F93AA
:100BC0008F939F93EF93FF93CF93DF93CDB7DEB7D0
:100BD00080E298E020E238E0F90124812064FC0101
:100BE00024830000DF91CF91FF91EF919F918F912E
:100BF0003F912F910F9000923F000F901F901895FA
:100C0000CF93DF931F92CDB7DEB7000080913429D8
:100C10008823E1F3809133298F5F8F7389838981E2
:100C2000809333290FB6F8940F9280913429815024
:100C3000809334290F900FBE8981882F90E08A5FBE
:0E0C4000974DFC0180810F90DF91CF910895B8
:100C4E00CF93DF931F92CDB7DEB7000080913A2984
:100C5E008823E1F3809139298F5F8F73898389818E
:100C6E00809339290FB6F8940F9280913A298150CA
:100C7E0080933A290F900FBE8981882F90E08A5772
:0E0C8E00974DFC0180810F90DF91CF9108956A
:100C9C00CF93DF93CDB7DEB760E088E790E00E949A
:100CAC00DA0660E08CE790E00E94DA0660E080E70C
:100CBC0090E00E94DA0661E181E690E00E94DA069B
:100CCC0060E080E690E00E94DA0660E082E690E068
:0C0CDC000E94DA0680E0DF91CF910895BD
:100CE8001F920F9200903F000F9211242F938F9321
:100CF8009F93EF93FF93CF93DF93CDB7DEB780E851
:100D080090E021E0FC0122870000DF91CF91FF9164
:100D1800EF919F918F912F910F9000923F000F902C
:040D28001F9018956B
:100D2C00CF93DF93CDB7DEB70E94E4000E94F006AC
:100D3C000E9411080E944E060E9404080E94C202E2
:100D4C000E94C4060E940B030000DF91CF9108950E
:100D5C00CF93DF9300D01F92CDB7DEB789839A83F0
:100D6C006B8389819A814B8168ED0E948208000017
:0C0D7C002396CDBFDEBFDF91CF9108951C
:100D8800CF93DF93CDB7DEB760E080E191E00E94BA
:100D9800AE0680E191E0FC01128280E191E0FC0165
:0C0DA8001382789480E0DF91CF910895D1
:100DB400CF93DF9300D01F92CDB7DEB789839A8398
:100DC4006B8389819A814B8168ED0E9482080000BF
:0C0DD4002396CDBFDEBFDF91CF910895C4
:100DE000CF93DF93CDB7DEB760E080E890E00E945C
:100DF000DA0680E890E0FC01118680E890E0FC01D2
:0A0E0000108680E0DF91CF91089585
:100E0A00CF93DF9300D01F92CDB7DEB789836A8371
:100E1A007B8389810E942A0480E090E02396CDBFDB
:080E2A00DEBFDF91CF910895B6
:100E3200CF93DF9300D0CDB7DEB789839A838981C0
:100E42009A81809314299093152900000F900F9096
:060E5200DF91CF9108952D
:100E5800CF93DF9300D0CDB7DEB789839A8389819A
:100E68009A81809316299093172900000F900F906C
:060E7800DF91CF91089507
:100E7E00CF93DF9300D0CDB7DEB789839A83898174
:100E8E009A81809318299093192900000F900F9042
:060E9E00DF91CF910895E1
:100EA400CF93DF9300D0CDB7DEB789839A8389814E
:100EB4009A8180931A2990931B2900000F900F9018
:060EC400DF91CF910895BB
:100ECA00CF93DF9300D0CDB7DEB789839A83898128
:100EDA009A8180931C2990931D2900000F900F90EE
:060EEA00DF91CF91089595
:100EF000CF93DF9300D0CDB7DEB789839A83898102
:100F00009A8180931E2990931F2900000F900F90C3
:060F1000DF91CF9108956E
:100F1600CF93DF9300D0CDB7DEB789839A838981DB
:100F26009A81809320299093212900000F900F9099
:060F3600DF91CF91089548
:100F3C00CF93DF9300D0CDB7DEB789839A838981B5
:100F4C009A81809322299093232900000F900F906F
:060F5C00DF91CF91089522
:100F6200CF93DF9300D0CDB7DEB789839A8389818F
:100F72009A81809324299093252900000F900F9045
:060F8200DF91CF910895FC
:100F8800CF93DF9300D0CDB7DEB789839A83898169
:100F98009A81809326299093272900000F900F901B
:060FA800DF91CF910895D6
:100FAE00CF93DF9300D0CDB7DEB789839A83898143
:100FBE009A81809328299093292900000F900F90F1
:060FCE00DF91CF910895B0
:100FD400CF93DF93CDB7DEB79091342981E0992385
:0A0FE40009F480E0DF91CF91089539
:100FEE00CF93DF93CDB7DEB790913A2981E0992365
:0A0FFE0009F480E0DF91CF9108951F
:10100800CF93DF93CDB7DEB760E080E590E00E9434
:0A101800DA0680E0DF91CF91089521
:10102200CF93DF93CDB7DEB760E080E091E00E941E
:0A103200DA0680E0DF91CF91089507
:10103C00CF93DF93CDB7DEB70E94C2020E940B03A1
:08104C000000DF91CF9108952F
:10105400CF93DF93CDB7DEB70000DF91CF91089532
:10106400CF93DF93CDB7DEB70000DF91CF91089522
:10107400CF93DF93CDB7DEB70000DF91CF91089512
:10108400CF93DF93CDB7DEB70000DF91CF91089502
:10109400CF93DF93CDB7DEB70000DF91CF910895F2
:1010A400CF93DF93CDB7DEB70000DF91CF910895E2
:1010B400CF93DF93CDB7DEB70000DF91CF910895D2
:1010C400CF93DF93CDB7DEB70000DF91CF910895C2
:1010D400CF93DF93CDB7DEB70000DF91CF910895B2
:1010E400CF93DF93CDB7DEB70000DF91CF910895A2
:1010F400CF93DF93CDB7DEB70000DF91CF91089592
:08110400FC0164BF4083089563
:04110C000C9400003F
:0E1110000000000200000000050700000000C3
:02111E005C056E
:02112000C60403
:02112200860540
:02112400F904CC
:02000004008278
:090000000000020000C00700002E
:00000001FF
