:100000000C94A0000C9485080C9473060C9485083D
:100010000C9485080C9485080C9485080C9485082C
:100020000C9485080C9485080C9485080C9485081C
:100030000C9485080C9485080C9485080C9485080C
:100040000C9485080C9485080C9485080C948508FC
:100050000C9485080C9485080C9485080C948508EC
:100060000C9485080C9485080C94BB030C94F20343
:100070000C94D7050C9485080C9485080C944D03BA
:100080000C9484030C94AF050C9485080C9485089B
:10009000311431168031163118803118311A8031FF
:1000A0001A311C80311C311E80311E3120803120DC
:1000B0003122803122312480312431268031263191
:1000C00028803128312A803106311400110E300683
:1000D0003046803132313380313331348031343104
:1000E0003580304630868031353136803136313793
:1000F000803137313880312A312C00111C312C31BC
:100100002E00111E308630C68031383139803139A9
:10011000313A80313A313B8030C6310680313B3153
:100120003C80313C313D80313D313E80312E31309B
:1001300000112031303132001122300030068000B1
:1001400011241FBECFEFCDBFDFE3DEBFE0E9F0E05B
:1001500041E017C0B591A59135912591059107FD15
:100160000CC095918591EF01F92FE82F05900D9224
:10017000A217B307D9F7FE0104C01D92A217B30757
:10018000E1F7EF33F40731F70E9491040C94C800B3
:04019000F894FFCF11
:1001940053797374656D20706F7765726564206F31
:1001A4006E2E20506C6561736520656E74657220D7
:1001B400796F757220666972737420636F6D6D61F7
:0401C4006E643A002B
:1001C800CF93DF93CDB7DEB70E94290280E094E099
:1001D80020E8FC01208380E294E0FC01108280E4A6
:1001E80094E021E0FC01208380E694E020EAFC0111
:1001F800208380E894E0FC01108280EA94E021E307
:10020800FC01208380E094E0FC01148280E294E009
:10021800FC01148280E494E021E0FC01248380E660
:1002280094E020E2FC01248380E894E0FC0114823D
:1002380080EA94E021E2FC01248380E094E0FC0160
:10024800108A80E094E0FC01118A80E094E0FC01CF
:10025800128A80E094E0FC01138A80E094E0FC01BB
:10026800148A80E094E0FC01158A80E094E0FC01A7
:10027800168A80E094E0FC01178A80E294E0FC0191
:10028800108A80E294E0FC01118A80E294E0FC018B
:10029800128A80E294E0FC01138A80E294E0FC0177
:1002A800148A80E294E0FC01158A80E294E0FC0163
:1002B800168A80E294E0FC01178A80E494E0FC014D
:1002C800108A80E494E0FC01118A80E494E0FC0147
:1002D800128A80E494E0FC01138A80E494E0FC0133
:1002E800148A80E494E0FC01158A80E494E0FC011F
:1002F800168A80E494E0FC01178A80E694E0FC0109
:10030800108A80E694E0FC01118A80E694E0FC0102
:10031800128A80E694E0FC01138A80E694E0FC01EE
:10032800148A80E694E0FC01158A80E694E0FC01DA
:10033800168A80E694E0FC01178A80E894E0FC01C4
:10034800108A80E894E0FC01118A80E894E0FC01BE
:10035800128A80E894E0FC01138A80E894E0FC01AA
:10036800148A80E894E0FC01158A80E894E0FC0196
:10037800168A80E894E0FC01178A80EA94E0FC0180
:10038800108A80EA94E0FC01118A80EA94E0FC017A
:10039800128A80EA94E0FC01138A80EA94E0FC0166
:1003A800148A80EA94E0FC01158A80EA94E0FC0152
:1003B800168A80EA94E0FC01178A80EE95E0FC0139
:1003C800118280EE95E0FC01108280EE95E0FC0140
:1003D800148280EE95E0FC01158280EE95E0FC0128
:1003E800138280EE95E0FC01128289E298E00E9477
:1003F800180781E398E00E942B0789E398E00E94A0
:100408003E0781E498E00E94510789E498E00E9441
:10041800640781E598E00E94770789E598E00E94E3
:100428008A0781E698E00E949D0789E698E00E9485
:10043800B00781E798E00E94C30789E798E00E9427
:0A044800D6070000DF91CF91089560
:10045200CF93DF93CDB7DEB72697CDBFDEBF19822C
:1004620012C08981882F90E080579B4F2981222FCB
:1004720030E020573B4FF90120812860FC012083A6
:1004820089818F5F89838981883058F31A8212C0EB
:100492008A81882F90E080559B4F2A81222F30E05D
:1004A20020553B4FF90120812860FC0120838A817D
:1004B2008F5F8A838A81883058F31B8212C08B81B6
:1004C200882F90E0805F9B4F2B81222F30E0205FAE
:1004D2003B4FF90120812860FC0120838B818F5FD3
:1004E2008B838B81883058F31C8212C08C81882FB9
:1004F20090E0805D9B4F2C81222F30E0205D3B4FAE
:10050200F90120812860FC0120838C818F5F8C831C
:100512008C81883058F31D8212C08D81882F90E023
:10052200805B9B4F2D81222F30E0205B3B4FF901F6
:1005320020812860FC0120838D818F5F8D838D81D6
:10054200883058F31E8212C08E81882F90E0805925
:100552009B4F2E81222F30E020593B4FF901208101
:100562002860FC0120838E818F5F8E838E8188308C
:1005720058F300002696CDBFDEBFDF91CF910895DC
:10058200CF93DF931F92CDB7DEB780E498E024E7E4
:1005920030E0FC012087318780E498E020EDFC0107
:1005A200258380E498E020ECFC01268380E498E037
:1005B20023E0FC01278380E498E0FC01138680E4B9
:1005C20098E0FC01148680E498E0FC01168680E441
:1005D20098E0FC01158619828981809333318981E3
:1005E200809332318981809334318981809336318D
:1005F20089818093353189818093373186E091E317
:10060200809302309093033000000F90DF91CF91DE
:02061200089549
:10061400CF93DF931F92CDB7DEB780E298E024E753
:1006240030E0FC012087318780E298E020EDFC0176
:10063400258380E298E020ECFC01268380E298E0A8
:1006440023E0FC01278380E298E0FC01138680E22A
:1006540098E0FC01148680E298E0FC01168680E2B2
:1006640098E0FC011586198289818093393189814A
:1006740080933831898180933A31898180933C31E8
:10068400898180933B31898180933D3100000F90B3
:06069400DF91CF910895F3
:10069A001F920F9200903F000F9211242F933F93C5
:1006AA004F935F936F937F938F939F93AF93BF9370
:1006BA00EF93FF93CF93DF93CDB7DEB780912A31C3
:1006CA0090912B31892B31F080912A3190912B31E5
:1006DA00FC0109950000DF91CF91FF91EF91BF9145
:1006EA00AF919F918F917F916F915F914F913F91C0
:0E06FA002F910F9000923F000F901F901895C7
:100708001F920F9200903F000F9211242F933F9356
:100718004F935F936F937F938F939F93AF93BF9301
:10072800EF93FF93CF93DF93CDB7DEB780912C3152
:1007380090912D31892B31F080912C3190912D3170
:10074800FC0109950000DF91CF91FF91EF91BF91D6
:10075800AF919F918F917F916F915F914F913F9151
:0E0768002F910F9000923F000F901F90189558
:100776001F920F9200903F000F9211242F933F93E8
:100786004F935F936F937F938F939F93AF93BF9393
:10079600EF93FF93CF93DF93CDB7DEB780912E31E2
:1007A60090912F31892B31F080912E3190912F31FC
:1007B600FC0109950000DF91CF91FF91EF91BF9168
:1007C600AF919F918F917F916F915F914F913F91E3
:0E07D6002F910F9000923F000F901F901895EA
:1007E4001F920F9200903F000F9211242F933F937A
:1007F4004F935F936F937F938F939F93AF93BF9325
:10080400EF93FF93CF93DF93CDB7DEB78091303171
:1008140090913131892B31F0809130319091313187
:10082400FC0109950000DF91CF91FF91EF91BF91F9
:10083400AF919F918F917F916F915F914F913F9174
:0E0844002F910F9000923F000F901F9018957B
:10085200CF93DF9300D0CDB7DEB78A838091353155
:100862008F5F8F7389830000809137318034E1F389
:100872008981882F90E08A5B9F4C2A81FC0120832A
:100882008981809335310FB6F8940F928091373178
:100892008F5F809337310F900FBE80E498E020E4A1
:1008A20038E0F90125812062FC01258300000F90C8
:0808B2000F90DF91CF91089532
:1008BA00CF93DF9300D0CDB7DEB78A8380913B31E7
:1008CA008F5F8F738983000080913D318034E1F31B
:1008DA008981882F90E08A539F4C2A81FC012083CA
:1008EA00898180933B310FB6F8940F9280913D3104
:1008FA008F5F80933D310F900FBE80E298E020E237
:10090A0038E0F90125812062FC01258300000F905F
:08091A000F90DF91CF910895C9
:10092200CF93DF93CDB7DEB70E9495060E941D08D4
:1009320084E991E40E942B050E94F6078823B1F016
:1009420004C00E9426060E9429040E94F6078823FA
:10095200C1F70E94E907882349F004C00E94FF05FD
:100962000E945D040E94E9078823C1F70E94E907FB
:10097200882311F304C00E94FF050E945D040E94B7
:08098200E9078823C1F7D8CF73
:10098A00CF93DF931F92CDB7DEB78091373188239B
:10099A00C1F0809136318F5F8F738983898180930B
:1009AA00363180E498E02981222F30E02A5B3F4CDF
:1009BA00F9012081FC012283809137318150809393
:1009CA00373180913731882349F480E498E020E474
:1009DA0038E0F90125812F7DFC01258300000F9065
:0609EA00DF91CF9108959A
:1009F000CF93DF931F92CDB7DEB780913D3188232F
:100A0000C1F080913C318F5F8F738983898180939E
:100A10003C3180E298E02981222F30E02A533F4C7C
:100A2000F9012081FC01228380913D318150809326
:100A30003D3180913D31882349F480E298E020E205
:100A400038E0F90125812F7DFC01258300000F90FE
:060A5000DF91CF91089533
:100A56000F931F93CF93DF93E0910230F091033011
:100A6600238121FF1BC08C01D0E0C0E0F8018191F9
:100A76008F016091023070910330DB011896ED9181
:100A8600FC911997882331F00995892B79F3DFEFCB
:100A9600CFEFECCF8AE00995892B19F08FEF9FEF06
:100AA60002C08D2F9C2FDF91CF911F910F9108953A
:100AB600CF93DF9300D0CDB7DEB780E498E0FC019A
:100AC60080818983809132318F5F8F738A83809191
:100AD60033319A81981781F08A81809332318A81E5
:100AE600882F90E08A5F9F4C2981FC0120838091AA
:100AF60034318F5F8093343100000F900F90DF9177
:040B0600CF910895EE
:100B0A00CF93DF9300D0CDB7DEB780E298E0FC0147
:100B1A0080818983809138318F5F8F738A83809136
:100B2A0039319A81981781F08A81809338318A8184
:100B3A00882F90E08A579F4C2981FC01208380915D
:100B4A003A318F5F80933A3100000F900F90DF9116
:040B5A00CF9108959A
:100B5E001F920F9200903F000F9211242F933F93FC
:100B6E008F939F93EF93FF93CF93DF93CDB7DEB722
:100B7E0080E498E020E438E0F90124812064FC014F
:100B8E0024830000DF91CF91FF91EF919F918F9180
:100B9E003F912F910F9000923F000F901F9018954C
:100BAE001F920F9200903F000F9211242F933F93AC
:100BBE008F939F93EF93FF93CF93DF93CDB7DEB7D2
:100BCE0080E298E020E238E0F90124812064FC0103
:100BDE0024830000DF91CF91FF91EF919F918F9130
:100BEE003F912F910F9000923F000F901F901895FC
:100BFE00CF93DF931F92CDB7DEB7000080913431D3
:100C0E008823E1F3809133318F5F8F7389838981DC
:100C1E00809333310FB6F8940F9280913431815016
:100C2E00809334310F900FBE8981882F90E08A5FB8
:0E0C3E009F4CFC0180810F90DF91CF910895B3
:100C4C00CF93DF931F92CDB7DEB7000080913A317E
:100C5C008823E1F3809139318F5F8F738983898188
:100C6C00809339310FB6F8940F9280913A318150BC
:100C7C0080933A310F900FBE8981882F90E08A576C
:0E0C8C009F4CFC0180810F90DF91CF91089565
:100C9A00CF93DF93CDB7DEB760E088E790E00E949C
:100CAA00D90660E08CE790E00E94D90660E080E710
:100CBA0090E00E94D90661E181E690E00E94D9069F
:100CCA0060E080E690E00E94D90660E082E690E06B
:0C0CDA000E94D90680E0DF91CF910895C0
:100CE6001F920F9200903F000F9211242F938F9323
:100CF6009F93EF93FF93CF93DF93CDB7DEB780E853
:100D060090E021E0FC0122870000DF91CF91FF9166
:100D1600EF919F918F912F910F9000923F000F902E
:040D26001F9018956D
:100D2A00CF93DF93CDB7DEB70E94E4000E94EF06AF
:100D3A000E9410080E9403080E944D060E94C102E8
:100D4A000E94C3060E940A030000DF91CF91089512
:100D5A00CF93DF9300D01F92CDB7DEB789839A83F2
:100D6A006B8389819A814B8168ED0E94810800001A
:0C0D7A002396CDBFDEBFDF91CF9108951E
:100D8600CF93DF93CDB7DEB760E080E191E00E94BC
:100D9600AD0680E191E0FC01128280E191E0FC0168
:0C0DA6001382789480E0DF91CF910895D3
:100DB200CF93DF9300D01F92CDB7DEB789839A839A
:100DC2006B8389819A814B8168ED0E9481080000C2
:0C0DD2002396CDBFDEBFDF91CF910895C6
:100DDE00CF93DF93CDB7DEB760E080E890E00E945E
:100DEE00D90680E890E0FC01118680E890E0FC01D5
:0A0DFE00108680E0DF91CF91089588
:100E0800CF93DF9300D01F92CDB7DEB789836A8373
:100E18007B8389810E94290480E090E02396CDBFDE
:080E2800DEBFDF91CF910895B8
:100E3000CF93DF9300D0CDB7DEB789839A838981C2
:100E40009A81809314319093153100000F900F9088
:060E5000DF91CF9108952F
:100E5600CF93DF9300D0CDB7DEB789839A8389819C
:100E66009A81809316319093173100000F900F905E
:060E7600DF91CF91089509
:100E7C00CF93DF9300D0CDB7DEB789839A83898176
:100E8C009A81809318319093193100000F900F9034
:060E9C00DF91CF910895E3
:100EA200CF93DF9300D0CDB7DEB789839A83898150
:100EB2009A8180931A3190931B3100000F900F900A
:060EC200DF91CF910895BD
:100EC800CF93DF9300D0CDB7DEB789839A8389812A
:100ED8009A8180931C3190931D3100000F900F90E0
:060EE800DF91CF91089597
:100EEE00CF93DF9300D0CDB7DEB789839A83898104
:100EFE009A8180931E3190931F3100000F900F90B6
:060F0E00DF91CF91089570
:100F1400CF93DF9300D0CDB7DEB789839A838981DD
:100F24009A81809320319093213100000F900F908B
:060F3400DF91CF9108954A
:100F3A00CF93DF9300D0CDB7DEB789839A838981B7
:100F4A009A81809322319093233100000F900F9061
:060F5A00DF91CF91089524
:100F6000CF93DF9300D0CDB7DEB789839A83898191
:100F70009A81809324319093253100000F900F9037
:060F8000DF91CF910895FE
:100F8600CF93DF9300D0CDB7DEB789839A8389816B
:100F96009A81809326319093273100000F900F900D
:060FA600DF91CF910895D8
:100FAC00CF93DF9300D0CDB7DEB789839A83898145
:100FBC009A81809328319093293100000F900F90E3
:060FCC00DF91CF910895B2
:100FD200CF93DF93CDB7DEB79091343181E099237F
:0A0FE20009F480E0DF91CF9108953B
:100FEC00CF93DF93CDB7DEB790913A3181E099235F
:0A0FFC0009F480E0DF91CF91089521
:10100600CF93DF93CDB7DEB760E080E590E00E9436
:0A101600D90680E0DF91CF91089524
:10102000CF93DF93CDB7DEB760E080E091E00E9420
:0A103000D90680E0DF91CF9108950A
:10103A00CF93DF93CDB7DEB70E94C1020E940A03A5
:08104A000000DF91CF91089531
:10105200CF93DF93CDB7DEB70000DF91CF91089534
:10106200CF93DF93CDB7DEB70000DF91CF91089524
:10107200CF93DF93CDB7DEB70000DF91CF91089514
:10108200CF93DF93CDB7DEB70000DF91CF91089504
:10109200CF93DF93CDB7DEB70000DF91CF910895F4
:1010A200CF93DF93CDB7DEB70000DF91CF910895E4
:1010B200CF93DF93CDB7DEB70000DF91CF910895D4
:1010C200CF93DF93CDB7DEB70000DF91CF910895C4
:1010D200CF93DF93CDB7DEB70000DF91CF910895B4
:1010E200CF93DF93CDB7DEB70000DF91CF910895A4
:1010F200CF93DF93CDB7DEB70000DF91CF91089594
:08110200FC0164BF4083089565
:04110A000C94000041
:0E110E000000000200000000040700000000C6
:02111C005B0571
:02111E00C50406
:02112000850543
:02112200F804CF
:02000004008278
:090000000000020000C00700002E
:00000001FF
