:020000040000FA
:1000000080315528303430347E1480314E01161E34
:100010000A280B2813280C1E0E280F2813289431A9
:100020007224803153280B1F162817285328191FB4
:100030001A281B2826280F1F1E281F2826284101A2
:1000400064088A0063080A0080315328991F292810
:100050002A2835288F1F2D282E283528410162088F
:100060008A0061080A0080315328191E382839286F
:1000700044280F1E3C283D284428410160088A007E
:100080005F080A0080315328991E472848285328C2
:100090008F1E4B284C28532841015E088A005D08BA
:1000A0000A00803153287E10090080315728410111
:1000B000803102208031EC00803103208031ED005E
:1000C00089308400963085004030860001308700FA
:1000D0000030FF0018309431F1248031B0308400BA
:1000E000263085004030FE000130FF009431E524C9
:1000F0008031FC0155308400003085001930FE004D
:100100000030FF009431E5248031A03084000030BD
:1001100085002F30FE000030FF009431E52480314F
:1001200020308400013085002030FE000030FF00C8
:100130009431E5248031A0308400013085004030C6
:10014000FE000030FF009431E5248031203084002F
:10015000023085004030FE000030FF009431E5247D
:100160008031A0308400023085004030FE00003035
:10017000FF009431E5248031203084000330850075
:100180004030FE000030FF009431E5248031A03083
:100190008400033085004030FE000030FF009431C1
:1001A000E524803120308400043085004030FE009A
:1001B0000030FF009431E5248031A0308400043009
:1001C00085004030FE000030FF009431E52480318E
:1001D0007E1040018231B12A4001B700BA290230B5
:1001E000AF002F08EC00D9293708AF002F08EA002C
:1001F0000330AF002F08EC00D9293A303702031C36
:10020000022903290C2937085F39C93EB100FF30A4
:1002100003180030B20013293708D03EB100FF3078
:1002200003180030B2003108AF002F08EB00043093
:10023000AF002F08EC00D9293A303702031C2129DE
:1002400022292B2937085F39C93EB300FF30031834
:100250000030B40032293708D03EB300FF30031815
:100260000030B4006B08AF000330AF35FF3E031D14
:1002700035292F353307B0003008EB000530AF00CB
:100280002F08EC00D9293A303702031C48294929A4
:10029000532937085F39C93E4101CB00FF300318AD
:1002A0000030CC005B293708D03E4101CB00FF3045
:1002B00003180030CC0001304001EB026B08031D35
:1002C0006229632966294001EC01D9290630AF0073
:1002D0002F08EC00D9293A303702031C7029712904
:1002E0007A2937085F39C93EB500FF30031800305E
:1002F000B60081293708D03EB500FF300318003022
:10030000B60041014C084001B00041014B084001DA
:10031000AF00AF0EB00EF030B0052F080F39B004AB
:10032000F030AF0535082F074101CB0040013608FA
:10033000303D4101CC004B084001AF002F08AA001E
:100340006A088C312A24803101304001EB026B08AD
:10035000031DAB29AC293E290D308931662180313E
:1003600063295B303706031DB629B729D929EC016B
:10037000EC0AD9296C08AF00B0013008003A031923
:10038000C229B1292F08003A0319B129013A0319EA
:10039000EF28033A0319F428013A0319FD28073A14
:1003A00003191C29013A03194329033A03196B293C
:1003B000B12908004001AE005130860001308700AD
:1003C00023308400003085000730A00016001A009A
:1003D000A00BE6297A08B0007908AF002F08300496
:1003E000031DF329F429F8292330AF000030B000B1
:1003F0003008F2002F08F1009631BA2681317208D8
:100400004001B4007108B300410142084001B2004C
:10041000410141084001B100B21B0F2A102A242AD1
:100420003208803AA0003408803A2002031D1A2ABC
:1004300033083102031C1D2A1E2A1F2A242A4001C8
:100440003208B4003108B30040013408B200330868
:10045000B100410140084001AD0041013F084001A9
:10046000AC0041014318352A362A572A482A203041
:10047000F1000030F20040012E08A0002008F30037
:100480008E313226813101304001B3070030B43D56
:1004900040013408803AA0002D08803A2002031D54
:1004A000532A2C083302031C562A572A372A4001A4
:1004B000AA01AB01772A40012F0886003008870087
:1004C0000108A000A1012008F1002108F2002E0877
:1004D000A2002208F3008E31322681310130400122
:1004E000AF070030B03D0130AA070030AB3D2B080C
:1004F000803AA0003208803A2002031D812A310888
:100500002A02031C842A852A5B2A4101431C892A6A
:100510008A2AAB2A9C2A2030F1000030F2004001E8
:100520002E08A0002008F3008E31322681310130E0
:100530004001B3070030B43D40013408803AA000C8
:100540002D08803A2002031DA72A2C083302031C21
:10055000AA2AAB2A8B2A40013408FA003308F90092
:1005600008009531C72582315030F1002730F20064
:10057000A0304101E9006908F30096315A26823122
:100580008B170B178631E926823194318D24823105
:10059000933198238231013A031DCF2AD02A532B5D
:1005A0009331EE238231013A031DD72AD82AF02A4B
:1005B0004E018C129631D32682318A311B22823130
:1005C0009631EC2682318A31B02282318B31F02390
:1005D0008231C82A9431D92482318031EC20823191
:1005E00097313D278231003A031DF72AF82AEA2A7B
:1005F000442B400198128931BF2182314101E90029
:1006000040015B08B03E4101EA00EB012630EB3DC2
:100610006A0886006B0887006908810040015B0852
:10062000B03E860087012630873D0D300106031954
:100630001A2B1B2B2D2B5B08B03E86008701263022
:10064000873D0A3001060319262B272B2D2B9F30BF
:100650005B06031D2C2B2D2B3E2B5B08B03E86002A
:1006600087012630873D8101B030F8002630F9003F
:100670008331772382314001DB01442B013041017A
:10068000E90069084001DB0794317B248231003A9C
:10069000031D4B2B4C2BF92AC82A9431D9248231C3
:1006A00089316621823197313D278231003A031D1D
:1006B0005A2B5B2B4D2B6C2B8931BF218231410191
:1006C000E9006908F6003430840098308500013F65
:1006D0008A00003F0A00833194317B248231003A42
:1006E000031D732B742B5C2BC82A80315528790885
:1006F000F2007808F1009631BA26833171080907B3
:10070000FA007A084001A0005B30FA007A08F6008F
:100710003430840098308500013F8A00003F0A0091
:10072000833140016D080F39403E8600013087005B
:100730000108FA007A08F600343084009830850009
:10074000013F8A00003F0A0083310130FA007A0835
:100750004001ED075330FA007A08F6003430840087
:1007600098308500013F8A00003F0A008331400134
:100770002008FA000430FA36890BBB2B7A080F39AF
:10078000403E8600013087000108FB007B08F60030
:100790003430840098308500013F8A00003F0A0011
:1007A0008331400120080F39403E86000130870028
:1007B0000108FA007A08F600343084009830850089
:1007C000013F8A00003F0A0083311E2C7808860012
:1007D000790887000108FA000430FA36890BED2BFE
:1007E0007A080F39403E8600013087000108FB007F
:1007F0007B08F6003430840098308500013F8A0081
:10080000003F0A00843178088600790887000108D3
:100810000F39403E8600013087000108FA007A084F
:10082000F6003430840098308500013F8A00003F94
:100830000A0084310130F8070030F93D780886005D
:10084000790887000108031D262C272CE62B5D3034
:10085000FA007A08F6003430840098308500013FB1
:100860008A00003F0A00843108004001BE003508BC
:1008700086008701403FB700413FB8003708840039
:10088000380885001200253A031D472C482CC22C3D
:100890003508860087010130810741310318810A3C
:1008A0004101BF01C001C301C401FF30C100FF30DD
:1008B000C2004001350886008701403FB700413F34
:1008C000B80037088400380885001200733A031D09
:1008D0006A2C6B2C8D2C350886008701013081072E
:1008E00041310318810A3608860087010108840017
:1008F000850102308107003FBC00013FBD003D087B
:10090000FA003C08F9003E088131DA2184317A0886
:100910004001B6007908B500E52C3508860087014E
:10092000403FB700413FB8003708840038088500D1
:100930001200253A031D9D2C9E2CB72C35088600ED
:1009400087010130810741310318810A2530F10008
:100950000030F2003E08B7003708F3008E3132262F
:10096000843101304001B5000030B600E52C350877
:10097000860087010130810741310318810AB501E2
:10098000B601E52C350886008701403FB700413F9E
:10099000B80037088400380885000008B900BA019B
:1009A0003908F1003A08F2003E08BB003B08F300AA
:1009B0008E313226843140013508860087010130AE
:1009C000810741310318810AB12C08004001A000C1
:1009D0005B30F9007908F6003430840098308500E7
:1009E000013F8A00003F0A00843140016D080F3941
:1009F000403E8600013087000108F9007908F600C2
:100A00003430840098308500013F8A00003F0A009E
:100A100085310130F90079084001ED072008F9001F
:100A20007908F6003430840098308500013F8A0050
:100A3000003F0A0085317808F1000030F20096315D
:100A4000BA2684317108F9007208FA000430FA36C7
:100A5000F90C890B272D79080F39403E86000130AB
:100A600087000108FB007B08F600343084009830D2
:100A70008500013F8A00003F0A0085317808F100B7
:100A80000030F2009631BA26843171080F39403EA9
:100A90008600013087000108F9007908F60034303B
:100AA000840098308500013F8A00003F0A008531AC
:100AB0006D2D7808860087010108F9007908F60095
:100AC0003430840098308500013F8A00003F0A00DE
:100AD00085310130F9007908F80778088600870128
:100AE0000108031D742D752D592D5D30F90079080D
:100AF000F6003430840098308500013F8A00003FC2
:100B00000A0085310800F8013630840098308500ED
:100B1000013F8A00003F0A008531F3007308F500A9
:100B20003630840098308500013F8A00003F0A007B
:100B30008531F3007308F600363084009830850064
:100B4000013F8A00003F0A008531F3007308F70077
:100B5000C82D4F307606031DAE2DAF2DD82D4B304E
:100B60007706031DB42DB52DD82DF801F80AD82D20
:100B700072307606031DBD2DBE2DD82D723077063E
:100B8000031DC32DC42DD82DF801D82D0030182EEB
:100B90007508F300F4017408003A0319D02DC62D2E
:100BA0007308413A0319A92D043A0319B82DC62D2B
:100BB0003630840098308500013F8A00003F0A00EB
:100BC00085313630840098308500013F8A00003F2F
:100BD0000A0085313630840098308500013F8A0054
:100BE000003F0A0085313630840098308500013F8F
:100BF0008A00003F0A008531363084009830850035
:100C0000013F8A00003F0A00863136308400983068
:100C10008500013F8A00003F0A008631363084009B
:100C200098308500013F8A00003F0A00863178082D
:100C300008003030FB007B084001A4003030FB008E
:100C40007B08A7003030FB007B08A500221E292E60
:100C50002A2E2F2E3130FB007B08A600332E303099
:100C6000FB007B08A60022080F39303EFB007B0802
:100C7000A400231E3C2E3D2E422E3130FB007B086B
:100C8000A700462E3030FB007B08A70023080F3951
:100C9000303EFB007B08A5007C30FB007B08430155
:100CA000A0004F30FB007B08A1002C30FB007B082C
:100CB000A20040012608FB007B084301A30040017D
:100CC0002408FB007B084301A4002C30FB007B08B8
:100CD000A50040012708FB007B084301A600400156
:100CE0002508FB007B084301A7000D30FB007B08B3
:100CF000A8000A30FB007B08A9000A30FB007B0833
:100D0000F800A0308A31E42286318531832586318E
:100D100008003630840098308500013F8A00003F8B
:100D20000A0086314001D0005008D4006603031D3C
:100D30009A2E9B2ED32E25305406031DA02EA12EB5
:100D4000B52EE6015508860056088700810158082F
:100D5000CF005708CE004430840098308500013F12
:100D60008A00003F0A008631E62E6908D000D101D2
:100D700050085707D2005108583DD3005308560277
:100D8000031DC42E520855020318C72EC82EE62E86
:100D90005508860056088700540881000130D507A1
:100DA0000030D63DE62E25305406031DD82ED92E10
:100DB000E02EE601E60A5808D6005708D500E62ED0
:100DC000E701E70A5408D0005008E800400167082E
:100DD0000800F101F10A4030840098308500013F9D
:100DE0008A00003F0A008631F101F10A3E3084009A
:100DF00098308500013F8A00003F0A0086310130AB
:100E0000F1000030F2004230840098308500013F4C
:100E10008A00003F0A008731F1013E30840098309B
:100E20008500013F8A00003F0A008731F101F10A85
:100E30003C30840098308500013F8A00003F0A0062
:100E40008731C830F1000030F20042308400983021
:100E50008500013F8A00003F0A008731382F363075
:100E6000840098308500013F8A00003F0A008731E6
:100E70003A30840098308500013F8A00003F0A0024
:100E80008731003A031D452F462F2F2F0800720887
:100E9000F9007108F8007408FB007308FA000130CB
:100EA000F5020030F63B750A031D5A2F760A031D22
:100EB0005A2F5B2F6A2FF101F201A02F0130F807A2
:100EC0000030F93D0130FA070030FB3D0130F502FA
:100ED0000030F63B7808860079088700010803197E
:100EE000722F732F922F7A0884007B0885001200DE
:100EF00003197B2F7C2F922F750876040319812FFD
:100F0000822F922F7A0884007B0885000008F70062
:100F10007808860079088700010877060319912F61
:100F2000922F5E2F78088600790887007A0884005F
:100F30007B08850000080102F100F201031CF203A6
:100F400008004001220823040319A72FA82FF42F1B
:100F50002308F2002208F1009631BA268731720880
:100F60004001A7007108A600E52F2108F200200823
:100F7000F1002308F4002208F3002708F6002608F1
:100F8000F50087314727873171087204031DC92F87
:100F9000CA2FCB2FF62F40012008013EF100003070
:100FA000213DF20022088400230885000008A400E7
:100FB000A5012408F3002508F4009731772787312D
:100FC00072084001A1007108A00020082104031943
:100FD000EA2FEB2FF42F2008860021088700010854
:100FE000031DF32FF42FB52FA001A101080040012C
:100FF0005C08031DFC2FFE2F0130FF2F003008007E
:1010000054011908F00040015E08A03E860004303B
:101010008700700881000130F0007008DE07403062
:101020005E02031C142815281628DE010130F0008A
:101030007008DC070800F900FA01FA0A41012018DB
:10104000222823283E282014FA0179080319292888
:101050002A282D28A901A90A31280230F800780889
:10106000A9009331862388319331F3238831031803
:101070003A283B283E289531242588317A080800F3
:10108000F500710872040319462847285828753559
:10109000AB3E860087017108C03F7208C13F7308EC
:1010A000F4007508B73E8600870174088100652842
:1010B0007535AB3E860087017A30C03F1330C13FA3
:1010C0007508B73E86008701810108002D30FB00BE
:1010D0007B084301A0002D30FB007B08A1002D30D0
:1010E000FB007B08A2000D30FB007B08A3000A3048
:1010F000FB007B08A4000530FB007B08F800A03053
:101100008A31E42288318430F3009830F4000530CD
:10111000FB007B08F500893192218831080093316A
:10112000802388314101A01D96289728A328943157
:101130005A248831031C9D289E28A3280F30F500CF
:1011400075084101A90041012908F500F601F535AE
:10115000F60D0030750784009830763D8500013F1C
:101160008A00003F0A008831F70077084101A90092
:101170000800410167080319BE28BF28B9284E019D
:10118000191BC328C428C828760854019A00E128EE
:1011900019137608F70040016008203E86000430ED
:1011A0008700770881000130F7007708E0074030BA
:1011B0006002031CDC28DD28DE28E001013041014B
:1011C000E7024E011917080005304001AB002B085B
:1011D000A00018308D31ED25883140012108B30081
:1011E0002008B20033081F39AB002B08B0003208CA
:1011F000AB002B08B1003108AB00AC013008AD00EA
:10120000AE012D08AE00AD012B082D04B2002C0854
:101210002E04B3003308AA003208A90008004001D8
:10122000A401A50126292308A000A1012008F1009E
:101230002108F2007B08A2002208F3008E3132263A
:10124000893101304001A4070030A53D7908240709
:1012500084007A08253D85000008A0002008A3002E
:101260002308031D3429352913292508FA002408E9
:10127000F90008004101A0110230F1007108AA0034
:1012800049299331CB23893165299331D023893181
:1012900065293908F1007108FA000F30A03E860078
:1012A0008701413F8A00403F0A008931F200F30183
:1012B0007308003A03195D2945297208023A031997
:1012C0004129013A0319412945290800F200410149
:1012D000680803196C296D2967294E01191A7129AB
:1012E00072297629720842019A008F291912720810
:1012F000F10040016408203E860003308700710839
:1013000081000130F1007108E40740306402031CE1
:101310008A298B298C29E40101304101E8024E0120
:1013200019160800F901B729363084009830850075
:10133000013F8A00003F0A008931F6007608F80074
:101340007408F7007308F6007908760784007708B8
:101350000318770A8500000878060319B029B12917
:10136000B3290030BE290130F6007608F907750868
:101370007902031CBC29BD299429013008004001D1
:1013800061080319C429C529BF296208203E8600C7
:10139000023087000108F10071084101CE004001D0
:1013A0006208A03E8600033087000108F100710842
:1013B000F2000130F1007108E20740306202031CC4
:1013C000E229E329E429E2014E01991201304001AA
:1013D000E1024E0199167208080040015C080319E9
:1013E000F229F329ED295D08A03E8600023087002E
:1013F0000108F10071084101CD0040015D08A03EE7
:101400008600043087000108F1007108F200013005
:10141000F1007108DD0740305D02031C102A112A1B
:10142000122ADD014E01991301304001DC024E0108
:101430009917720808004001B30140308C31E32451
:101440008A31FF3040014005F9000F304105FA00B4
:1014500033309531DA258A31FF3040014205F900F9
:101460000F304305FA0033309531DA258A31FF30E9
:1014700040014405F9000F304505FA00333095313D
:10148000DA258A3133304001B2003208F800583092
:101490008431E6248A3108004001C4004008C600B7
:1014A0003F08C5004101BD01BE016A2A4530C200A6
:1014B0004208B5004108C3004308B600440884311F
:1014C00035248A31400135084101BD074001360805
:1014D0004101BE3D400145088400460885001200D8
:1014E000031D732A742A562A41013E084001C00098
:1014F00041013D084001BF000800410120158D2A2F
:101500009331CB238A31AF2A933195238A3103302B
:10151000AF2A9331D0238A31AF2A3708F1007108FE
:10152000FA000B30A03E86008701413F8A00403F11
:101530000A008A31F200F3017308003A0319A12A64
:10154000892A7208013A0319892A033A0319802A61
:10155000013A0319802A073A0319842A892A0800C4
:10156000943105248A314001A1002108A500A2017F
:101570002508A1002108F60022308B31BA238A31D8
:1015800022304001A1002108F8004C308431E624CB
:101590008A319331E9238A31103E4001A1002108AC
:1015A000A500A2012508A1002108F60022308B31F8
:1015B000BA238A3122304001A1002108F8004C30C2
:1015C0008431E6248A3108004001A100A001102BDB
:1015D0003830840098308500013F8A00003F0A00BF
:1015E0008A31003A0319F52AF62A102B4001200807
:1015F0002107F90079088600013087000108FA0008
:101600007A08F6003430840098308500013F8A0063
:10161000003F0A008B310130F90079084001A00732
:10162000780840012002031C162B172BE82A08001B
:101630004001AC00963102268B31003A0319212B70
:10164000222B1A2B02304001A9002908FB00193077
:101650008F310A278B314001AA002A08AD000330E0
:10166000A9002908FB0019308F310A278B3140016E
:10167000AA002A08AE002E08AA002D08A9000430EE
:10168000AB002A0DAA0CA90CAB0B412B2C08860031
:1016900087012908C03F2A08C13F08004001AC006B
:1016A000963118268B31003A0319572B582B502BA3
:1016B00004304001A9002908FB0019308F310A27A6
:1016C0008B314001AA002A08AD000530A900290885
:1016D000FB0019308F310A278B314001AA002A08FC
:1016E000AE002E08AA002D08A9000430AB002A0D78
:1016F000AA0CA90CAB0B772B2C08860087012908B4
:10170000C03F2A08C13F08004001AC0096312E2698
:101710008B31003A03198D2B8E2B862B063040011E
:10172000A9002908FB0019308F310A278B314001AD
:10173000AA002A08AD000730A9002908FB001930CB
:101740008F310A278B314001AA002A08AE002E08EB
:10175000AA002D08A9000430AB002A0DAA0CA90C80
:10176000AB0BAD2B2C08860087012908C03F2A0847
:10177000C13F0800F8007808F1000030F20096310F
:10178000BA268B317108F7007708F807760E0F3903
:101790008919F0380F39403E860001308700010872
:1017A000F700780886008701770881000130F7008C
:1017B0007708F80776080F39403E86000130870029
:1017C0000108F7007808860087017708810001305A
:1017D000F7007708F807780886008701810108007C
:1017E0004001A301B7010C2C37087E3E84009830DD
:1017F0000318013E85000008A1002108B600360844
:10180000A1002108F60023308B31BA238B3101303F
:101810004001A1002108B7077E30F1009830F200A6
:101820009631BA268B3140013708A100A201720817
:101830002202031D1D2C71082102031C202C212CC7
:10184000F42B2330A1002108F80056308431E6241F
:101850008B3108004001AD00542C2A08AB00043045
:10186000AB36890B302C2B080139AC002C08AE00AC
:101870002E08031D3C2C3D2C452C2A18402C412CB5
:10188000432C9816642C9812642C2A18482C4A2C45
:1018900001304B2C0030953141258C31642C2A08C5
:1018A000893166218C31642C2D08AB00AC012C08E9
:1018B000003A03195C2C642C2B084C3A03192D2C8C
:1018C0001F3A03194F2C642C08007C08203E860028
:1018D00002308700810142011D1D6F2C702C7C2C71
:1018E0007C08203E860002308700811441015C089C
:1018F0008A005B080A008C3142019D1C802C812CDF
:101900008D2C7C08203E86000230870001154101A5
:101910005A088A0059080A008C317C08203E86004B
:101920000230870001080319962C972C9E2C410148
:1019300058088A0057080A008C31A12C97310627D5
:101940008C31080040015E08A03E8600023087000E
:10195000810154011D1DAD2CAE2CBB2C40015E0835
:10196000A03E8600023087008114410156088A009B
:1019700055080A008C3154019D1CBF2CC02CCD2C65
:1019800040015E08A03E860002308700011541013B
:1019900054088A0053080A008C3140015E08A03EBA
:1019A00086000230870001080319D72CD82CDF2CC1
:1019B000410152088A0051080A008C31E22C88311A
:1019C00000208C3108004001AF00963102268C3196
:1019D000003A0319EC2CED2CE52C30308B31182318
:1019E0008C3140012F08860087013008C03F310844
:1019F000C13F963118268C31003A0319002D012D74
:101A0000F92C30308B314E238C3140012F08023EAF
:101A1000860087013008C03F3108C13F96312E262D
:101A20008C31003A0319152D162D0E2D30308B31C7
:101A300084238C3140012F08043E86008701300842
:101A4000C03F3108C13F08004E0199126530F100D6
:101A50000C30F200943123248D314E011912B6302E
:101A6000F1001730F200943129248D310830420101
:101A70009F0090309D0024309E0044309B009C01CC
:101A80007530F1001330F200943117248D319F30FE
:101A9000F1001330F20094311D248D319B30F100A0
:101AA0001330F200943111248D314101CE014001F7
:101AB000E401E3014030F30073084101E800FC0158
:101AC0004001E201E1014E01991608004E0199130F
:101AD000A230F1000C30F200943141248D314E01DE
:101AE0001913DB30F1001730F200943147248D31A7
:101AF000083054019F0090309D0024309E004030FB
:101B00009B0003309C007630F1001330F2009431DA
:101B100035248D31A730F1001330F20094313B248D
:101B20008D31A330F1001330F20094312F248D3128
:101B30004101CD014001E001DF014030F3007308B5
:101B40004101E7004001DE01DD01DC014E01991792
:101B5000080046304001C7009830C8004F08CA004E
:101B60004E08C9009531B5258D3140014F08A100BF
:101B70004E08A0006B30A2009830A3008731A12747
:101B80008D314001200821040319C72DC82DD12D06
:101B9000E5019430A6009830A700973159278D3180
:101BA000EC2D4F08A1004E08A0005430A200983040
:101BB000A3008731A1278D3140012008210403199A
:101BC000E22DE32DEC2DE501E50A9230A6009830D8
:101BD000A700973159278D3108004001A600400128
:101BE00026088E3178268D31003A0319F82DF92D0B
:101BF000EF2D9330F6001530F70027304001A2009A
:101C00002208F8009431FD248D310130F1000030BC
:101C1000F2002030953150258D317E30F6001330A2
:101C2000F700F80195310A258D319331E4238D3188
:101C30009631A1268D31013A03191F2E202E182E20
:101C400040012808A3002708A2002308A200A3013E
:101C50002708A500A40122082404A00023082504C5
:101C6000A100080073080319362E372E3C2E730886
:101C7000031D3B2E3C2E412E7108933179238E316A
:101C8000702E7308033E86008701160001040319B5
:101C90004A2E4B2E682E7308033E86008701403F74
:101CA000F400413FF500730A86008701403FF600CB
:101CB000413FF7007708803AF8007508803A7802CB
:101CC000031D642E740876020318672E682E702E8A
:101CD000730A860087010130810741310318810AA8
:101CE0007108F400F5017408F1007508F2000800AD
:101CF000F400F501F50A4101A0187F2E802EBE2EBA
:101D00007408F3007308A1002010A014A0110E3075
:101D1000F3007308A900F430A7000130A8002015D3
:101D20007A30AB001330AC00B7017A30AD0013301D
:101D3000AE00B8017A30AF001330B000B9017A308C
:101D4000B1001330B200BA017C30B3001330B400DC
:101D5000BB019431C1248E31933180238E31003008
:101D6000F1000030F2009331F9238E318F30F10011
:101D70000830F2009331FF238E31F5017508080019
:101D8000933192238E31F1004101220886008701B0
:101D9000710881000130F1007108A2070130A3022F
:101DA0000030A43B230824040319D72ED82EDD2E9F
:101DB0009331AB238E310530092F2015E72E933157
:101DC000DF238E31092F9331DA238E31092F370823
:101DD000F1007108FA000B30A03E86008701413FF8
:101DE0008A00403F0A008E31F200F3017308003A86
:101DF0000319FB2EE32E7208013A0319E32E033A6E
:101E00000319DF2E013A0319DF2E073A0319E32ED7
:101E1000E32E08004001A1002A30A0002008A50000
:101E20000230A3000030A400400121088E31782642
:101E30008F31003A03191D2F1E2F142F8230F60008
:101E40001530F70025304001A0002008F80094313B
:101E5000FD248F310130F1000030F2007B309531EC
:101E600050258F317E30F6001330F700F8019531A0
:101E70000A258F319331E4238F319631A1268F319A
:101E80004001A0002008A20022030319482F492F77
:101E90003D2F2208031D4D2F4E2F4F2F592FFF305E
:101EA000A307FF30A43D23082404031D582F592FF6
:101EB000142F2508080040019C0139309800990131
:101EC000C1309A0008309600D2309200FE30930064
:101ED000253094007E01CE01E030C3000230B8000E
:101EE000E501C401B901CF01E601BA01C501D00184
:101EF000FF30BB00FF30C600FF30D1003F30BC00D8
:101F00003F30C7003F30D2003F133E133D177730BC
:101F1000F1001330F20094314D248F314E0116162A
:101F200009307D01C5001230C90013307E019900CF
:101F30001630A3000F30980014309A001530A1001D
:101F40002530A40015307D01CD000A30C6000B30CD
:101F5000CB001130C800080094315A248F31031C83
:101F6000B22FB32FE32FC02F9331C1238F31FF2F17
:101F70009331C6238F31FF2F9331D0238F31FF2F21
:101F800041013A08F2007208FA001130A03E8600C2
:101F90008701413F8A00403F0A008F31F300F4017E
:101FA0007408003A0319D52FBC2F7308013A03199E
:101FB000BC2F033A0319B42F013A0319B82F073A7B
:101FC0000319BC2FBC2F4101A0110230A03E860096
:101FD0008701403F84008501810A00089331B723BF
:101FE0008F3101304101A3020030A43B23082404B7
:101FF000031DFB2FFC2FFE2F0630FF2F03300800A0
:1026EA00080008000800080008000130080005304A
:1026FA000800033008004E010F1008004E0119109F
:10270A000800430111140800430191140800430111
:10271A001115080043019115080043010C0808002F
:10272A004E010F140800400165080800973106277A
:10273A009331080042011D121D160800883100203D
:10274A009331080054011D121D160800430191120D
:10275A0011160800430191161116080054011E0CA7
:10276A0001390800F100710843018C000800410199
:10277A002010AA010E3008009331892393310130C9
:10278A000800933189239331023008009331892359
:10279A0093310130080093318C23933100300800C3
:1027AA009331AB239331053008009331AF23933132
:1027BA000A3008009331AF23933109300800003002
:1027CA0088311B209331080040015A080139013C25
:1027DA0008004E010C0E890C013908004E01190837
:1027EA000139F100710C080072084101CA00710830
:1027FA00C900080072084101C8007108C700080032
:10280A0040010C0E890C0139013C080040010C0DF5
:10281A000C0D0139013C080072084101D800710809
:10282A00D700080072084101DC007108DB000800CB
:10283A0072084101DA007108D900080072084101E2
:10284A00DE007108DD00080072084101E00071082D
:10285A00DF00080072084101D2007108D1000800A7
:10286A0072084101D6007108D500080072084101BA
:10287A00D4007108D300080072084101E20071080F
:10288A00E100080072084101E4007108E300080051
:10289A0072084101E6007108E50008004101A01133
:1028AA0093318F239431043008004301110E890CAF
:1028BA00890C0139F100710C0800933178239431A5
:1028CA0041012010AA010E3008004101A01521354E
:1028DA009331B7239431033008007E013F1F762CD1
:1028EA00772C7A2C95313225943108004001610801
:1028FA00031D802C822C0130832C003008004101FA
:10290A00A0150314210D9331B72394310530080023
:10291A000130F10071084001D9000130F10071085D
:10292A00DA000800603051018D008F0191010630F4
:10293A0093009001920108004F01960197019801B6
:10294A0099019A019B019C019D01080071080319D4
:10295A00AF2CB02CB32C40011A13B52C40011A1716
:10296A00080071080319BA2CBB2CBE2C40011810A0
:10297A00C02C4001181408004301901AC52CC62C1B
:10298A00CC2C8F012830900091014F308D00080027
:10299A00400192137103031DD32CD42CD62C981703
:1029AA00D72C98139217080097313D279431003A93
:1029BA000319E02CE12CD92C4001E7016808080032
:1029CA006400800101310130FE020030FF3B7F08C4
:1029DA007E04031DE62C0034FE0012001E000130A6
:1029EA00FE020030FF3B7F087E04031DF22C0034F8
:1029FA007708F2007608F1007808F9007908F30000
:102A0A00003088314020943108007708F2007608B7
:102A1A00F1007808F9007908F30002308831402083
:102A2A0095310800FB008831E42095317B08860047
:102A3A00870140012908C03F2A08C13F08002C2D00
:102A4A0000309531A425953188318F209531410187
:102A5A002018302D312D252D080041016508660406
:102A6A000319382D392D3E2D66088A0065080A009B
:102A7A0095317E013F1308004001A9000130A800EA
:102A8A002908A8025A082806FE392806DA009731CA
:102A9A00212795310800F4004101201D552D562D9E
:102AAA005F2D7408F3007308A2007208A40071086D
:102ABA00A300201108000230F1000030F2007A0869
:102ACA009531502595310030F600F700F801943120
:102ADA00FD249531043008000130F1000030F20085
:102AEA007A089531502595310030F600F700F80143
:102AFA009431FD249531043008000130F100003092
:102B0A00F2007A089531502595310030F600F70029
:102B1A00F8019431FD249531023008000230F100A9
:102B2A000030F2007A089531502595310030F600D0
:102B3A00F700F8019431FD249531023008004E0166
:102B4A000F18A82DA92DB42D4E010F1CAD2DAE2D99
:102B5A00AF2DB42DA0300032890BB02DA92D08005D
:102B6A004930FB007B084001CD004808C0004708F7
:102B7A00BF004D30FB007B08C10000308A314C2277
:102B8A00953108009431A12495318F315B27953115
:102B9A009431972495319531EE2595318D3124253F
:102BAA0095318D316625953108004001A0007908DC
:102BBA00FB007B08F60020088B31BA2395317A088E
:102BCA00FB007B08F600400120088B31BA239531BF
:102BDA00080047304B019F000B309D00DC309C0001
:102BEA001D084101D0004B011C084101CF004E01D4
:102BFA008C1290304B019E00080002304001A60062
:102C0A002608FB0019308F310A2796310139031D36
:102C1A000F2E112E0130122E00304001A700270876
:102C2A00A8002808080004304001A6002608FB0076
:102C3A0019308F310A2796310139031D252E272E87
:102C4A000130282E00304001A7002708A8002808D4
:102C5A00080006304001A6002608FB0019308F3113
:102C6A000A2796310139031D3B2E3D2E01303E2E97
:102C7A0000304001A7002708A800280808004D2EA8
:102C8A000B30F3006230890B482EF30B482E0032CA
:102C9A000130F1020030F23B710A031D582E720A0C
:102CAA00031D582E592E452E080071087204031967
:102CBA005F2E602E702E02307302031C652E662E64
:102CCA00702E72084001D8007108D7007308FF3EC1
:102CDA00F4007408E90008007A0886008701403F7A
:102CEA00F100413FF2007A08023E8600870101089E
:102CFA009531502596310030F600F700F8019431ED
:102D0A00FD24963102300800303431343234333401
:102D1A00343435343634373438343934413442343F
:102D2A004334443445344634003428346E347534DC
:102D3A006C346C3429340034F201F20A410120184F
:102D4A00A72EA82EB82EA010FF30F1007108A100FE
:102D5A0093318023963193318323963141012A0896
:102D6A00F1007108F200720808007208F500710893
:102D7A00F400C32E0130F1070030F23D71088400DF
:102D8A00720885001200031DCB2ECC2EBF2E7408AC
:102D9A007102F1007508723BF20008004001B501AA
:102DAA003A3095311725963140013B08FA003A0826
:102DBA00F90035309531DA25963135304001B400C5
:102DCA003408F80054308431E624963108009431EE
:102DDA000B2496314001A1002108A200A301220878
:102DEA00A1002108F60023308B31BA239631233013
:102DFA004001A1002108F80050308431E6249631C0
:102E0A00080042011908F0007C08A03E8600033041
:102E1A008700700881000130F0007008FC0740301C
:102E2A007C02031C192F1A2F1B2FFC010130F00002
:102E3A0070084001E107080097319527973114304F
:102E4A00F1000030F2004230840098308500013FE2
:102E5A008A00003F0A00973140015A08A300590826
:102E6A00A2008631192697318831662097310800E9
:102E7A00400167080319422F432F452F0130582F6D
:102E8A003A30840098308500013F8A00003F0A00EA
:102E9A009731003A0319522F532F572F863189261B
:102EAA009731582F003008004001AA01AA0A2708C2
:102EBA00FA002608F900FB0189310F219731FA1B24
:102ECA00672F682F762F0A30F1000030F200F301E5
:102EDA008E3132269731F21B732F742F762F4001D1
:102EEA00AA010800710886007208870001087306A3
:102EFA00031D802F812F822F942F7208F6007108EC
:102F0A00F500F10A0319F20A7508860076088700A7
:102F1A000108031D912F922F772FF101F20108006A
:102F2A002430FB007B084301A0002430FB007B080F
:102F3A00A1002430FB007B08A2000330FB007B08C1
:102F4A00F800A0308A31E42297318930F3009830B2
:102F5A00F4000530FB007B08F50089319221973196
:102F6A0008004030410168020318BC2FBD2FD82F3A
:102F7A0040016308203E86000330870001084201B1
:102F8A009A000130F00070084001E3074030630204
:102F9A00031CD02FD12FD22FE3010130F00070088B
:102FAA004101E807DA2F4E011912080040304101A9
:102FBA0067020318E12FE22FFD2F40015F08203E30
:102FCA00860004308700010854019A000130F0009D
:102FDA0070084001DF0740305F02031CF52FF62F0F
:102FEA00F72FDF010130F00070084101E707FF2FDA
:102FFA004E0119130800BC341334843414346A346F
:10300A001434AC340F34C0340E34533414347D3495
:10301A000A34C1341334C6341334CB341334D034A1
:10302A001334D5341334DA341334DF3413346234BA
:10303A0014343A340934003400340034003400348F
:10304A0000340034003400340034003400340034D6
:10305A000034003400340034003400340034B9340D
:10306A000834ED340934B3341334F7340734AB3449
:10307A001434B6341434CD34143444341634A934E4
:10308A000D343C343C343C342034253473342034FD
:10309A003E343E343E3420340D340A340034533442
:1030AA0054345234453441344D345F344F345034FF
:1030BA0045344E3400345234653462346F346F34DC
:1030CA00743469346E3467340D340A344434493400
:1030DA00533443344F344E344E34453443345434E9
:1030EA0000341A3480343F3400340A3440343F34D4
:1030FA00003431342E3430342E34303400344534F4
:10310A004E3444340D340A3443344D3444343E345A
:10311A0020347E3498347E3498345B3400345D3401
:02312A0000346F
:020000040001F9
:0A000E00EC3FFF3F9F3FFF3FFF3F25
:00000001FF
