:100000000C94BD000C9402100C94770E0C9402100A
:100010000C9402100C9402100C9402100C94E00941
:100020000C9402100C945C090C9488090C94B4098B
:100030000C9402100C9402100C9402100C940210F8
:100040000C9402100C940C0A0C94350A0C94EA0DD2
:100050000C9402100C9402100C9402100C940210D8
:100060000C9402100C9402100C945E0A0C94870AF3
:100070000C94FF0D0C9402100C9402100C940210BE
:100080000C9402100C9402100C9402100C940210A8
:10009000338E33908033A433A58033A533A68033C9
:1000A000A633A78033A733A88033A833A98033A908
:1000B00033AA8033AA33AB80339033928033AB338F
:1000C000AC80339233948033AC33AD803346336AA3
:1000D00000201C336A338E803394339600204033E3
:1000E00096339800204233AD33AE8033AE33AF80C9
:1000F00033AF33B080314631C68033B033B1803353
:10010000B133B28033B233B38031C632468033B3B9
:1001100033B4803398339A002044339A339C0020C0
:1001200046339C339E002048339E33A000204A3340
:10013000A033A200204C33A233A400204E33B433AA
:10014000B58033B533B68033B633B780324632C666
:100150008033B733B88033B833B98033B933BA801A
:1001600032C633468033BA33BB80300630A6803087
:10017000A631468030003006800011241FBECFEF2C
:10018000CDBFDFE3DEBFE0E9F0E041E017C0B591AD
:10019000A59135912591059107FD0CC0959185910B
:1001A000EF01F92FE82F05900D92A217B307D9F7A9
:1001B000FE0104C01D92A217B307E1F7E937F40767
:0E01C00031F70E9493030C94E500F894FFCFF2
:1001CE00312E302E30003C3C3C202573203E3E3EEE
:1001DE00200D0A00444953434F4E4E454354005D93
:1001EE000053545245414D5F4F50454E005B003019
:1001FE00313233343536373839414243444546007F
:10020E00EE0B2E0DD10F810F390F2F0F580E430FFE
:02021E00440892
:10022000ABE0B0E0E6E1F1E00C94600D6C017B0125
:100230008A01FC0116821782838181FFCCC1CE0125
:1002400001963C01F6019381F70193FD859193FF9F
:1002500081917F01882309F4BAC1853239F493FD75
:10026000859193FF81917F01853229F4B60190E059
:100270000E94F906E7CF912C212C312CFFE1F315D8
:10028000D8F08B3279F038F4803279F08332A1F4EF
:10029000232D20611DC08D3261F0803369F4232D40
:1002A000216016C0832D8260382EE32DE4603E2E3F
:1002B0002AC0F32DF8601DC037FC2DC020ED280F9B
:1002C0002A3040F08E32B9F436FC81C1232D2064EF
:1002D000322E19C036FE06C08AE0989E200D1124E9
:1002E000922E11C0EAE02E9E200D1124222EF32D15
:1002F000F0623F2E08C08C3621F4832D8068382EA2
:1003000002C0883641F4F70193FD859193FF8191F6
:100310007F018111B3CF982F9F7D9554933028F49E
:100320000C5F1F4F9FE399830DC0833631F08337F5
:1003300071F0833509F059C021C0F80180818983AB
:100340000E5F1F4F88248394912C530113C0280102
:10035000F2E04F0E511CF801A080B18036FE03C0C0
:10036000692D70E002C06FEF7FEFC5010E94240F7E
:100370004C018201F32DFF773F2E16C0280122E0A9
:10038000420E511CF801A080B18036FE03C0692DD9
:1003900070E002C06FEF7FEFC5010E94190F4C01A2
:1003A000F32DF0683F2E820133FC1BC0822D90E0BC
:1003B00088169906B0F4B60180E290E00E94F90632
:1003C0002A94F4CFF50137FC859137FE81915F01C6
:1003D000B60190E00E94F90621102A9421E0821AC9
:1003E00091088114910471F7E8C0843611F08936C0
:1003F00041F5F80137FE07C06081718182819381E8
:100400000C5F1F4F08C060817181072E000C880BA4
:10041000990B0E5F1F4FF32DFF763F2E97FF09C0FC
:1004200090958095709561957F4F8F4F9F4FF068A5
:100430003F2E2AE030E0A3010E949604882E861801
:1004400045C0853731F4232D2F7EB22E2AE030E0CF
:1004500025C0932D997FB92E8F36C1F018F48835B9
:1004600079F0B5C0803719F0883721F0B0C0E92F96
:10047000E061BE2EB4FE0DC0FB2DF460BF2E09C09E
:1004800034FE0AC0292F2660B22E06C028E030E0D4
:1004900005C020E130E002C020E132E0F801B7FE03
:1004A00007C060817181828193810C5F1F4F06C0FC
:1004B0006081718180E090E00E5F1F4FA3010E9478
:1004C0009604882E8618FB2DFF773F2E36FE0DC032
:1004D000232D2E7FA22E891458F434FE0BC032FC3B
:1004E00009C0832D8E7EA82E05C0B82CA32C03C076
:1004F000B82C01C0B92CA4FE0FC0FE01E80DF11DFF
:100500008081803321F49A2D997EA92E09C0A2FE04
:1005100006C0B394B39404C08A2D867809F0B394CE
:10052000A3FC11C0A0FE06C0B21488F4280C922CC3
:100530009B180EC0B21460F4B60180E290E00E94F5
:10054000F906B394F7CFB21418F42B1802C0982C04
:10055000212CA4FE10C0B60180E390E00E94F906B1
:10056000A2FE17C0A1FC03C088E790E002C088E5A6
:1005700090E0B6010CC08A2D867859F0A1FE02C029
:100580008BE201C080E2A7FC8DE2B60190E00E9400
:10059000F906891438F4B60180E390E00E94F90668
:1005A0009A94F7CF8A94F301E80DF11D8081B6018A
:1005B00090E00E94F9068110F5CF222009F442CE86
:1005C000B60180E290E00E94F9062A94F6CFF60187
:1005D0008681978102C08FEF9FEF2B96E2E10C940A
:0205E000790D93
:1005E2009091A6339330B9F028F4913051F09230C3
:1005F20061F092C0953061F1D0F0963009F442C0BA
:100602008BC082E08093A63308958093A53383E064
:100612008093A63308958A3310F4805302C08F75F5
:1006220087538093A43384E08093A6330895209166
:10063200A4332295207F8A3310F4805302C08F7531
:100642008753820F8093A43385E08093A633089565
:100652008A3318F490E0C09703C08F7590E0C79773
:1006620080938E3390938F338091A4338150809303
:10067200A433811103C01092A633089586E08093BB
:10068200A633089540918E3350918F3342955295FF
:10069200507F5427407F54278A3318F490E0C09744
:1006A20005C08F75282F30E0C901C797840F951FA9
:1006B20080938E3390938F332091A5332C3419F08D
:1006C2002335B9F018C084FD0AC080FD04C080E162
:1006D2008093A50410C080E18093A6040CC080FD25
:1006E20004C080E28093A50406C080E28093A60441
:1006F20002C00E942C0C8091A43381508093A433B9
:10070200811106C08DE00E942C0C1092A633089530
:1007120085E08093A63308958B3519F481E08093A8
:04072200A63308955D
:100726000E94910D60EA86EA90E30E94260E789474
:100736000E9435070EE012E40F2EF6EAEF2EF4E0E3
:10074600FF2EF02D6894992494F80F2EF5EACF2EFB
:10075600F4E0DF2EF02D0F2EA12CFAE0BF2EF02DA7
:10076600882483940E94F60F882309F44CC00E94C3
:10077600D70F882389F0F50183860E944B0C0E94CF
:1007860002090E94A40C0E94A5080E94D408EACF80
:100796000E944D0F0E94F1020E944A058111F8CF76
:1007A60029C0C091BA33D0E00E94470DCA5FDF4C22
:1007B6008883F70190828091BA33E82FF0E0EA5FF0
:1007C600FF4C90819D3021F09A3011F08F3979F4E9
:1007D600F6019082E091BA33F0E0EA5FFF4C1082B6
:1007E60086E090E30E94F4041092BA3303C08F5F50
:1007F6008093BA330E94880F8111D3CFB3CF0E9462
:100806004D0F0E942C0C0E944A058111F8CF07C09B
:10081600F801C081D1810E94470DFE0109950E9411
:08082600880F8111F5CF9ECF70
:10082E000F931F93CF93DF930E94A60740E054E0EF
:10083E0081EDFA01808320E234E0F901108280E438
:10084E0094E061E0FC016083C0E6D4E07DEA788349
:10085E00A0E8B4E01C9200EA14E077E3F80170839C
:10086E00FA016483F9011482FC0164836CE26C83E7
:10087E0014961C92149760E3F8016483FA01108AAF
:10088E00118A128A138A148A158A168A178AF9010E
:10089E00108A118A128A138A148A158A168A178A5E
:1008AE00FC01108A118A128A138A148A158A168AF2
:1008BE00178A188A198A1A8A1B8A1C8A1D8A1E8A06
:1008CE001F8A50961C92509751961C925197529691
:1008DE001C92529753961C92539754961C9254976F
:1008EE0055961C92559756961C92569757961C9253
:1008FE00F801108A118A128A138A148A158A168AA6
:10090E00178AE0EEF5E01182108285E0848315826D
:0E091E0013821282DF91CF911F910F910895E5
:10092C00FA01AA27283051F1203181F1E8946F9314
:10093C006E7F6E5F7F4F8F4F9F4FAF4FB1E03ED0BA
:10094C00B4E03CD0670F781F891F9A1FA11D680F58
:10095C00791F8A1F911DA11D6A0F711D811D911D8B
:10096C00A11D20D009F468943F912AE0269F112400
:10097C003019305D3193DEF6CF010895462F477064
:10098C00405D4193B3E00FD0C9F7F6CF462F4F70BF
:10099C00405D4A3318F0495D31FD4052419302D01D
:1009AC00A9F7EACFB4E0A6959795879577956795C3
:1009BC00BA95C9F700976105710508959B01AC01C3
:1009CC000A2E06945795479537952795BA95C9F7EA
:0C09DC00620F731F841F951FA01D08955B
:1009E800FF920F931F93CF93DF93EC01FC010190CB
:1009F8000020E9F73197E81BF90BFE2EFF0C009158
:100A08000E4210910F428BE5F8010995E091A7334A
:100A180081E08E0F8093A733EF70F0E0E350FE4B38
:100A28008081F801099583E5F8010995EF2DE29594
:100A3800EF70F0E0E350FE4B8081F8010995EF2D4F
:100A4800EF70F0E0E350FE4B8081F8010995E881F2
:100A5800EE2399F0E295EF70F0E0E350FE4B8081D1
:100A6800F8010995E991EF70F0E0E350FE4B8081C1
:100A7800F8010995E881E111EDCF8DE5F8010995B7
:0C0A8800DF91CF911F910F91FF90089516
:100A94008091A933811151C0E0911442F091154223
:100AA4000995882309F449C0E0911042F09111425C
:100AB40009959091A833992359F1853289F41092BC
:100AC400A833E0919033F09191331082E0911E426B
:100AD400F0911F42809192339091933309952BC0EA
:100AE400E0919033F09191339091AB332091923314
:100AF40030919333290F311DE217F307E0F49F017E
:100B04002F5F3F4F2093903330939133808313C0F2
:100B1400853261F481E08093A8338091923390917F
:100B24009333809390339093913305C091E09093E5
:0C0B3400A9338093AA338091A93308955F
:100B4000FF920F931F93CF93DF93F82EEB01009149
:100B50000E4210910F428BE5F8010995E091A73301
:100B600081E08E0F8093A733EF70F0E0E350FE4BEF
:100B70008081F80109958F2DF8010995FE010190FA
:100B80000020E9F73197EC1BFD0BF295E295EF7031
:100B9000EF27FF70EF27EF70FF27E350FE4B8081B8
:100BA000F8010995FE0101900020E9F73197EC1B4F
:100BB000FD0BEF70FF27E350FE4B8081F801099594
:100BC0008881882331F02196F80109958991811156
:100BD000FBCF8DE5F8010995DF91CF911F910F9122
:040BE000FF900895E5
:100BE400EDE8F3E380818E7F808380918933909157
:100BF4008A33019719F40E94CB0F02C00E94C50FDB
:100C0400EAE6F3E3878D90A10197878F90A3892B60
:100C140071F0A58DB68D8091A8088C93858D968DE5
:100C24000196858F968F0E94B30F84E00895AAE6FB
:100C3400B3E35D96ED91FC915E978091A808808363
:100C44005D968D919C915E9701965D968D939C9394
:100C54005E97EDE8F3E3808188608083ED91FC91F9
:100C640011971C968D919C911D9709958250823005
:100C740020F40E94CB0F88E008950E94AE0E0895E0
:100C84000E94DD0F8823C9F0AAE6B3E31696ED911E
:100C9400FC91179752968D919C91539709958230A8
:100CA40019F0833021F006C00E94A10E08950E941D
:100CB400D30E08950E940E0F0895EDE8F3E38081AA
:100CC40088608083AAE6B3E3ED91FC9111971C96AA
:100CD4008D919C911D970995833039F0843041F0B2
:100CE400823049F40E94A10E08950E94D30E089503
:0C0CF4000E946E0708950E940E0F0895E4
:100D0000EF92FF921F93CF93DF9300D0CDB7DEB762
:100D1000182F6A838AE289836894EE24E1F8F12C23
:100D2000812F0E94DD078823D9F3BE016F5F7F4FBB
:100D30008BEB9EE00E948F0F61E070E0CE01029687
:100D40000E94370E60E070E088E090E10E94950F0D
:100D50000E94E20F0E946A0B8130E1F3882321F0A8
:100D600081E0E81AF108E1F689810F900F90DF9198
:0A0D7000CF911F91FF90EF900895BE
:100D7A000F931F93CF93DF9300D0CDB7DEB78C01CB
:100D8A0062E089E10E94800680FFFACFCE010196D7
:100D9A000E94D60A89819A81F8018083918364E04E
:100DAA0089E10E94800680FFFACFCE0101960E9457
:100DBA00FB0A89819A81F8018283938366E089E13B
:100DCA000E94800680FFFACFCE0101960E94200B76
:100DDA0089819A81F801848395830F900F90DF911E
:080DEA00CF911F910F910895B4
:100DF2000F931F93CF93DF93FB01238121FD03C048
:100E02008FEF9FEF2CC022FF16C0468157812481AD
:100E120035814217530744F4A081B1819D012F5FB0
:100E22003F4F208331838C93268137812F5F3F4F41
:100E32002683378314C08B01EC01FB010084F1850A
:100E4200E02D0995892BE1F6D80116968D919C919A
:100E52001797019616968D939C931797CE01DF9163
:080E6200CF911F910F9108953B
:100E6A00EF92FF920F931F93CF93DF93CEE0D2E4DA
:100E7A00EC85FD8581E00995EA84FB8481E0F70130
:100E8A0009950E851F8581E090E0F801099580E0BB
:100E9A00F7010995E885F98581E0099588EC90E0E4
:100EAA00F80109958E010E80DF81C02D06C0D80198
:100EBA001296ED91FC9113970995FE0109958111FE
:100ECA00F6CF81E0DF91CF911F910F91FF90EF90C4
:020EDA00089579
:100EDC000E94DD0F8823C9F0AAE6B3E31696ED91C4
:100EEC00FC91179752968D919C915397099582304E
:100EFC0019F0833021F006C00E94A10E08950E94C3
:100F0C00D30E08950E940E0F0895EDE8F3E380814F
:100F1C008E7F8083EAE6F3E3A58DB68DCD01019635
:100F2C00858F968F8C918093A808878D90A10197BF
:100F3C00878F90A3892B11F485E0089583E00895A1
:100F4C00E0E9F4E0808188608193E83984E0F80777
:100F5C00C9F7E0EBF4E0808188608193E83B84E0A2
:100F6C00F807C9F7E0E1F4E0808188608193E8310B
:100F7C0084E0F807C9F7E0E3F4E0808188608193AE
:100F8C00E83384E0F807C9F7E0E5F4E08081886095
:100F9C008193E83584E0F807C9F7E0E7F4E0808155
:0E0FAC0088608193E83784E0F807C9F708955C
:100FBA0090918D3392FD2EC0EAE6F3E3848FADE87B
:100FCA00B3E3892F887F9EE091A324EF31E0228F3B
:100FDA00338F846088608C9384E090E1808391836E
:100FEA00148615868283938316861786848395834F
:100FFA00108A118A86839783128A138A86E090E17F
:10100A0080879187148A158A0E945F0F0E94A10F18
:08101A0080E0089581E00895D3
:101022001F93CF93DF9300D01F92CDB7DEB7182F57
:101032006B83812F0E94DD078823D9F3BE016F5F86
:101042007F4F87EC9EE00E948F0F61E070E0CE013F
:1010520003960E94370E60E070E088E090E10E9403
:10106200950F0E94E20F0E946A0B8130E1F38981A1
:101072009A819827892798272396CDBFDEBFDF91D3
:06108200CF911F910895BB
:10108800CF93DF93D82FC92F9F938F9384ED91E44B
:101098009F938F930E94D40D62EE71E48D2F9C2F45
:1010A8000E94FB0C0F900F900F900F90892B39F036
:1010B8001092AC338DEE91E40E9475080FC06FEE6C
:1010C80071E48D2F9C2F0E94FB0C892B39F081E055
:1010D8008093AC338BEF91E40E947508DF91CF9138
:0210E800089569
:1010EA000F931F93CF93DF93E0910230F091033077
:1010FA00238121FF1BC08C01D0E0C0E0F80181915F
:10110A008F016091023070910330DB011896ED91E6
:10111A00FC911997882331F00995892B79F3DFEF30
:10112A00CFEFECCF8AE00995892B19F08FEF9FEF6B
:10113A0002C08D2F9C2FDF91CF911F910F9108959F
:10114A001F93CF93DF9300D01F92CDB7DEB766B35C
:10115A00198211E0629561706127CE0101960E94A1
:10116A00870CBE016F5F7F4F8CE40E94A00566B3B7
:10117A00198265FB662760F96127605FCE010196D7
:10118A000E94870CBE016F5F7F4F8CE40E94A0050E
:0E119A002396CDBFDEBFDF91CF911F91089548
:1011A800EF92FF920F931F93CF93DF93CDB7DEB7E4
:1011B8006397CDBFDEBF19820EEC11E40F2EF3ED5D
:1011C800EF2EF1E4FF2EF02DF80161918F01CE0191
:1011D80001960E94870C0E151F05B1F7BE016F5FBF
:1011E8007F4F86E50E94A0056396CDBFDEBFDF91E5
:0C11F800CF911F910F91FF90EF90089590
:10120400CF93DF93CDB7DEB76397CDBFDEBF19822F
:10121400CE010E960E94BD066E857F857F70CE013D
:1012240001960E94680E688979897F70CE010196C3
:101234000E94680E6A897B897F70CE0101960E94A4
:10124400680EBE016F5F7F4F88E50E94A00563961C
:0A125400CDBFDEBFDF91CF910895FA
:10125E00CF93DF930E94A10F80918D3380FF07C043
:10126E000E94DD0F882319F08FE080938B330E944C
:10127E00AD0F882319F080E180938B330E94A70F66
:10128E00882319F081E180938B33CAE6D3E3E9A179
:10129E00F0E0EE0FFF1FEA5BFC4C0190F081E02DB9
:0A12AE00099589A3DF91CF910895FF
:1012B8001F920F920FB60F9211242F933F934F93C3
:1012C8005F936F937F938F939F93AF93BF93EF93A6
:1012D800FF93E0919E33F0919F33309709F0099581
:1012E80080E180930B0AFF91EF91BF91AF919F919D
:1012F8008F917F916F915F914F913F912F910F90B7
:081308000FBE0F901F90189515
:101310001F920F920FB60F9211242F933F934F936A
:101320005F936F937F938F939F93AF93BF93EF934D
:10133000FF93E0919C33F0919D33309709F009952C
:1013400080E280930B0AFF91EF91BF91AF919F9143
:101350008F917F916F915F914F913F912F910F905E
:081360000FBE0F901F901895BD
:101368001F920F920FB60F9211242F933F934F9312
:101378005F936F937F938F939F93AF93BF93EF93F5
:10138800FF93E0919A33F0919B33309709F00995D8
:1013980080E480930B0AFF91EF91BF91AF919F91E9
:1013A8008F917F916F915F914F913F912F910F9006
:0813B8000FBE0F901F90189565
:1013C0001F920F920FB60F9211242F933F934F93BA
:1013D0005F936F937F938F939F93AF93BF93EF939D
:1013E000FF93E0919833F0919933309709F0099584
:1013F00081E080930B0AFF91EF91BF91AF919F9194
:101400008F917F916F915F914F913F912F910F90AD
:081410000FBE0F901F9018950C
:101418001F920F920FB60F9211242F933F934F9361
:101428005F936F937F938F939F93AF93BF93EF9344
:10143800FF93E0919633F0919733309709F009952F
:10144800FF91EF91BF91AF919F918F917F916F9194
:101458005F914F913F912F910F900FBE0F901F906A
:021468001895D5
:10146A001F920F920FB60F9211242F933F934F930F
:10147A005F936F937F938F939F93AF93BF93EF93F2
:10148A00FF93E0919433F0919533309709F00995E1
:10149A00FF91EF91BF91AF919F918F917F916F9142
:1014AA005F914F913F912F910F900FBE0F901F9018
:0214BA00189583
:1014BC001F920F920FB60F9211242F933F934F93BD
:1014CC005F936F937F938F939F93AF93BF93EF93A0
:1014DC00FF93E091A233F091A333309709F0099573
:1014EC00FF91EF91BF91AF919F918F917F916F91F0
:1014FC005F914F913F912F910F900FBE0F901F90C6
:02150C00189530
:10150E001F920F920FB60F9211242F933F934F936A
:10151E005F936F937F938F939F93AF93BF93EF934D
:10152E00FF93E091A033F091A133309709F0099524
:10153E00FF91EF91BF91AF919F918F917F916F919D
:10154E005F914F913F912F910F900FBE0F901F9073
:02155E001895DE
:1015600040E068ED88E790E00E94F20F40E068ED0F
:101570008CE790E00E94F20F40E068ED80E790E099
:101580000E94F20F41E168ED81E690E00E94F20FC7
:1015900040E068ED80E690E00E94F20F40E068EDE8
:0C15A00082E690E00E94F20F80E00895C7
:1015AC000F931F93CF938C0162E089E10E94800618
:1015BC0080FFFACF62E089E10E948006C82F63E0C9
:1015CC0089E10E9480062C2F30E0382B3595279529
:1015DC00359527953595279535952795F8012083D1
:0A15EC003183CF911F910F910895F4
:1015F6000F931F93CF938C0164E089E10E948006CC
:1016060080FFFACF64E089E10E948006C82F65E07A
:1016160089E10E9480062C2F30E0382B35952795DE
:10162600359527953595279535952795F801208386
:0A1636003183CF911F910F910895A9
:101640000F931F93CF938C0166E089E10E9480067F
:1016500080FFFACF66E089E10E948006C82F67E02C
:1016600089E10E9480062C2F30E0382B3595279594
:10167000359527953595279535952795F80120833C
:0A1680003183CF911F910F9108955F
:10168A006115710581F090E0FC01EE0FFF1FE6592C
:10169A00FC4C60837183880F991FFC01EA58FC4C4B
:1016AA0040835183089590E0FC01EE0FFF1FE65935
:1016BA00FC4C24E030E120833183880F991FFC0120
:0A16CA00EA58FC4C108211820895CA
:1016D400CF93DF930E94A70F882341F0EDE8F3E353
:1016E40080818D7F808382E080938C3380918D33E1
:1016F40081FD0EC0EDE8F3E38B7F8083CAE6D3E37C
:101704008FEF8C8F0E94A10F0E949B0F8AA101C0B2
:0817140081E0DF91CF910895FF
:10171C00EDE8F3E380818E7F8083AAE6B3E382E079
:10172C0092968C9392971496ED91FC9115975096F6
:10173C008D919C9151970995823019F0833021F04D
:10174C0006C00E94A10E08950E94D30E08950E9417
:04175C000E0F0895CF
:101760000E94B90FAAE6B3E382E092968C93929717
:101770001296ED91FC9113971E968D919C911F9757
:101780000995823019F0833021F006C00E94A10E25
:0E17900008950E94D30E08950E94030F08953D
:10179E008091AD33882389F0E091AE33EF5FEF7720
:1017AE00E093AE33F0E0EA5BFE4C8081809302085A
:1017BE008091AD3381508093AD338091AD338111E3
:0E17CE0005C0E0E0F8E085818F7D85830895F9
:1017DC002091AF332F5F2F779091AD339038E1F399
:1017EC00E22FF0E0EA5BFE4C80832093AF330FB620
:1017FC00F8940F928091AD338F5F8093AD330F903F
:0E180C000FBEE0E0F8E08581806285830895DC
:10181A008091B433882389F0E091B533EF5FEF7795
:10182A00E093B533F0E0EA5BFD4C808180932208B7
:10183A008091B43381508093B4338091B433811151
:0E184A0005C0E0E2F8E085818F7D858308957A
:101858002091B6332F5F2F779091B4339038E1F30E
:10186800E22FF0E0EA5BFD4C80832093B6330FB69D
:10187800F8940F928091B4338F5F8093B4330F90B4
:0E1888000FBEE0E2F8E085818062858308955E
:10189600CF93DF93CDB7DEB72797CDBFDEBF1982D3
:1018A600CE0106960E94480E6E817F81CE0101967A
:1018B6000E94680EBE016F5F7F4F84E50E94A005FF
:0C18C6002796CDBFDEBFDF91CF910895C3
:1018D200E0E0FAE086EB9CE080A791A782A793A7BD
:1018E20084A795A710A211A21182128213821482D8
:1018F200158216821782168611861286138686A391
:0C19020097A317868FE0808380E0089593
:10190E00DC010D900020E9F71197E62FE295EF70BC
:10191E000E2E000CFF0BE350FE4B80818C93E62FB6
:10192E00EF700E2E000CFF0BE350FE4B80811196D4
:0A193E008C93119712961C920895E5
:10194800CF93DF9300D01F92CDB7DEB766B319826D
:1019580063FB662760F981E06827CE0101960E9443
:10196800870CBE016F5F7F4F80E50E94A00523961C
:0A197800CDBFDEBFDF91CF910895CF
:10198200E0E0F8E08DE695E08087918780ED858341
:1019920080EC868383E087831386148616861586F9
:1019A2001092B1331092B2331092B0331092AE3320
:0A19B2001092AF331092AD33089588
:1019BC00E0E2F8E084E790E08087918780ED858312
:1019CC0080EC868383E087831386148616861586BF
:1019DC001092B8331092B9331092B7331092B533CA
:0A19EC001092B6331092B433089540
:1019F600FB0151915523A9F0BF01DC014D9145171B
:101A06004111E1F759F4CD010190002049F04D91C3
:101A160040154111C9F3FB014111EFCF81E090E080
:041A26000197089587
:101A2A0090918D3391FD13C0EDE8F3E392609083BA
:101A3A00882321F081E080938B3303C082E0809376
:101A4A008B330E942F090E94140E80E0089581E0D2
:021A5A000895ED
:101A5C008091B0338823E1F3E091B133EF5FEF77FE
:101A6C00E093B1330FB6F8940F928091B03381505C
:101A7C008093B0330F900FBEF0E0EA53FE4C8081A0
:021A8C000895BB
:101A8E008091B7338823E1F3E091B833EF5FEF77BE
:101A9E00E093B8330FB6F8940F928091B73381501C
:101AAE008093B7330F900FBEF0E0EA53FD4C808168
:021ABE00089589
:101AC0002F923F924F925F926F927F928F929F924E
:101AD000AF92BF92CF92DF92EF92FF920F931F933C
:101AE000CF93DF93CDB7DEB7CA1BDB0BCDBFDEBF15
:021AF000099457
:101AF2002A88398848885F846E847D848C849B849C
:101B0200AA84B984C884DF80EE80FD800C811B81A9
:101B1200AA81B981CE0FD11DCDBFDEBFED010895DF
:101B22000E9417040E94F70E0E94790F0E94710F03
:101B32000E94B00A0E94860E0E94EB0E0E94690C5F
:0E1B42000E94940E0E94C10C0E94DE0C0895B9
:101B500090910008E091B233EF5FEF778091B1335D
:101B6000E81759F0E093B233F0E0EA53FE4C90836B
:0C1B70008091B0338F5F8093B0330895F4
:101B7C0090912008E091B933EF5FEF778091B83303
:101B8C00E81759F0E093B933F0E0EA53FD4C908339
:0C1B9C008091B7338F5F8093B7330895BA
:101BA800A0E0B0E0EAEDFDE00C94700DAE014B5FF3
:101BB8005F4FFA0161917191AF018091023090916C
:0C1BC80003300E941001E2E00C94890D33
:101BD4001F920F920FB60F9211248F93EF93FF93DE
:101BE400E0E0F8E0848180648483FF91EF918F9139
:0A1BF4000F900FBE0F901F90189580
:101BFE001F920F920FB60F9211248F93EF93FF93B4
:101C0E00E0E2F8E0848180648483FF91EF918F910C
:0A1C1E000F900FBE0F901F90189555
:101C2800CF93DF9380918D3381FF09C0CDE8D3E353
:101C38000E94680F0E942F09888181FDF9CFDF91EA
:041C4800CF9108959B
:101C4C00009759F0623058F080939233909393330D
:101C5C0061506093AB3381E0089580E0089580E09B
:021C6C000895D9
:101C6E009C0190918D3393FF0BC0EAE6F3E3258F31
:101C7E00368F678F70A3EDE8F3E3892F877F80831C
:021C8E000895B7
:101C9000CF93DF93EC0165E088E10E941108292FC2
:101CA0002F7190E0922B88839983DF91CF910895D3
:101CB00098E09093A104813021F488E08093A504FA
:101CC00003C088E08093A60488E08093A20408956E
:101CD0001F93CF93DF93EC01172F0E94870C612F86
:0E1CE000CE010E94870CDF91CF911F910895D5
:101CEE001F920F920FB60F9211248F9381E0809363
:0E1CFE008A008F910F900FBE0F901F901895C7
:101D0C00E0EAF8E0108212828BE0868381E0838324
:0C1D1C00158217821482108680E0089562
:101D280040E068ED80E191E00E94F20FE0E1F1E02F
:0A1D380012821382789480E008956F
:101D4200EDE8F3E380818160808380918633880FA0
:0A1D520081608093A70884E00895E3
:101D5C000E94CB0F0E94BF0FEDE8F3E380818D7FD3
:0A1D6C00808310928C3380E008950C
:101D760061E070E00E94370E60E070E080E090E085
:081D86000E948F0F82E0089516
:101D8E0062E070E00E94370E60E070E080E090E06C
:081D9E000E948F0F82E00895FE
:101DA600EDE8F3E380818160808380918633880F3C
:081DB6008093A70883E0089563
:101DBE000E945F0FEDE8F3E380818D7F808382E0E8
:081DCE0080938C338EE0089530
:101DD600E0ECF8E087E2808383E081831282109250
:081DE600B333138280E008957D
:101DEE0040E068ED80E890E00E94F20FE0E8F0E05D
:081DFE001186108680E00895B3
:101E06000E945F0FEDE8F3E380818D7F808310925F
:061E16008C338EE00895FC
:101E1C000E94BF0FEDE8F3E380818D7F80831092E9
:061E2C008C3380E00895F4
:101E3200FC010590615070400110D8F78095909593
:061E42008E0F9F1F0895A2
:101E4800FC016150704001900110D8F78095909581
:061E58008E0F9F1F08958C
:101E5E00882321F088E080936604089588E08093BB
:041E6E00650408956A
:101E7200882321F084E080936604089584E08093AF
:041E82006504089556
:101E8600009739F0E1E4F3E03197F1F700000197AC
:041E9600C9F70895EB
:101E9A000E944A058823E1F31092A9338091AA335C
:021EAA00089599
:101EAC00EDE8F3E380818D7F808310928C3380E0AA
:021EBC00089587
:101EBE00E0EAF8E08481886084838581816085838F
:021ECE00089575
:101ED000E0EAF8E0858188231CF0858186FFFACF4F
:021EE000089563
:101EE20040E068ED80E590E00E94F20F80E0089506
:101EF20040E068ED80E091E00E94F20F80E00895FA
:0E1F02009091B03381E0911101C080E008950C
:0E1F10009091B73381E0911101C080E00895F7
:0C1F1E00AB01BC0180E00E94450B08955F
:0C1F2A00AB01BC0182E00E94450B089551
:0C1F3600E0EAF8E083818F738383089554
:0C1F4200E0EAF8E08581806C858308955A
:0C1F4E008091A50882FB882780F9089587
:0C1F5A008091A50883FB882780F908957A
:0C1F6600E0EAF8E0848182608483089542
:0C1F7200E0EAF8E085818860858308952E
:0C1F7E00E0EAF8E0848183608483089529
:0C1F8A00E0EAF8E084818B7F84830895F6
:0C1F9600E0EAF8E0848184608483089510
:0C1FA2008091040886FB882780F90895D0
:0C1FAE0090910B0A81E090FF80E0089504
:0A1FBA008091A508829581700895BA
:081FC40080E00E94150D089554
:081FCC000E94C50F83E0089597
:081FD4000E94C50F84E008958E
:081FDC000E94CB0F88E008957C
:081FE400FC0164BF4083089575
:061FEC008091AC33089562
:061FF2000E94A10E0895FB
:061FF8000E94A10E0895F5
:061FFE000E94D30E0895BD
:042004000C94000038
:0420080081E00895D6
:04200C0085E00895CE
:0420100083E00895CC
:0220140008952D
:0220160008952B
:02201800089529
:02201A00089527
:10201C00560FA10ED30E6E07F2054206FC0FFF0FF2
:10202C00F90F0E0FEA0FE60FAE0EEE0F030F8E0B2D
:04203C00B00BDF0EF8
:02204000CF0BC4
:02204200A80DE7
:022044000D107D
:022046000C107C
:022048000B107B
:02204A000A107A
:02204C000D0C79
:02204E00BE0DC5
:02000004008278
:090000000000020000C00700002E
:00000001FF
