:020000040000FA
:0400000080314928DA
:100008007E1480310B1F09280A2847284E01191F22
:100018000E280F281A280F1F122813281A28400103
:100028003B088A003A080A0080314728991F1D2892
:100038001E2829288F1F212822282928400139080D
:100048008A0038080A0080314728191E2C282D28D4
:1000580038280F1E302831283828400131088A00F6
:1000680030080A0080314728991E3B283C28472839
:100078008F1E3F284028472840012F088A002E0855
:100088000A00803147287E10090080314B28DD3076
:100098008400843085005F308600003087000F3090
:1000A80085311D2580317C30840081308500A03069
:1000B8008600003087004B3085311D258031FC01DA
:1000C8002030840000308500293085312325803197
:1000D800203084000130850040308531232580316F
:1000E800A0308400013085004030853123258031DF
:1000F800203084000230850020308531232580316E
:10010800A0308400023085004030853123258031BD
:10011800203084000330850040308531232580312C
:10012800A03084000330850040308531232580319C
:10013800203084000430850040308531232580310B
:100148007E104001813124294001D00049088600F1
:100158008701403FCB00413FCC004B0884004C084E
:1001680085001200253A031DBA28BB280029490832
:10017800860087010130810741310318810AA201F5
:10018800A301A601A701FF30A400FF30A50049087C
:1001980086008701403FCB00413FCC004B088400DC
:1001A8004C0885001200253A031DDB28DC28F528B9
:1001B8004908860087010130810741310318810A07
:1001C8002530F4000030F5005008CB004B08F6004D
:1001D8008131C721803101304001C9000030CA0097
:1001E8002329490886008701013081074131031816
:1001F800810AC901CA012329490886008701403FAD
:10020800CB00413FCC004B0884004C088500000817
:10021800CD00CE014D08F4004E08F5005008CF007F
:100228004F08F6008131C721803140014908860016
:1002380087010130810741310318810AEF2808003E
:100248008431CD2481318B170B17853116258131E7
:10025800FF304001D9008230DA008431BB2481317B
:1002680085310D258131003A03193B293C29622942
:1002780043298331952381318331EC2381318531C1
:100288000D258131003A031D4A294B293D29853125
:1002980004258131003A03195229532962295A2920
:1002A8008331692381318331C1238131853104252B
:1002B8008131003A031D61296229542985310425B9
:1002C8008131003A031969296A293429712983314E
:1002D800692381318331C1238131853104258131FD
:1002E800003A031D782979296B2934298031492856
:1002F800413454342B3443344F34503453343F3422
:100308000034003400340034003400340034413404
:1003180054342B3443344F34503453343D34303414
:100328000034003400340034003400344134543490
:100338002B34433445345234453447343F34003445
:1003480000340034003400340034413454342B3445
:10035800433447344134543454343F340034003443
:100368000034003400340034413454342B344334E2
:100378004D34453445343D3432340034003400348F
:1003880000340034003476080319CB29CC29D1294C
:100398007608031DD029D129D62974088531292545
:1003A8008131052A7608033E86008701160001047C
:1003B8000319DF29E029FD297608033E8600870115
:1003C800403FF700413FF800760A86008701403F2A
:1003D800F900413FFA007A08803AFB007808803A31
:1003E8007B02031DF929770879020318FC29FD29E6
:1003F800052A760A860087010130810741310318F2
:10040800810A08004E019913C230F1000230F2004F
:100418008531352582314E0119133F30F100043002
:10042800F20085312F258231083054019F00903029
:100438009D0024309E0044309B009C017B30F100DD
:100448000530F2008531412582316B30F1000530ED
:10045800F20085313B2582316F30F1000530F20022
:100468008531472582314001C301C801C7014030A9
:10047800F3007308C600FC01C501C4014E019917B9
:1004880008004E0199128430F1000230F2008531E3
:10049800532582314E0119126230F1000430F20006
:1004A80085314D258231083042019F0090309D00F2
:1004B80024309E0044309B009C017C30F1000530C4
:1004C800F20085315F2582317330F1000530F2008A
:1004D8008531592582317730F1000530F2008531B8
:1004E800652582314001BC01C201C1014030F300E1
:1004F8007308C000BF01BE01BD014E019916080076
:1005080040013F08A03E860001308700810142017A
:100518001D1D8F2A902A9C2A40013F08A03E860074
:100528000130870081142D088A002C080A008231C6
:1005380042019D1CA02AA12AAD2A40013F08A03EE5
:1005480086000130870001152B088A002A080A0056
:10055800823140013F08A03E860001308700010833
:100568000319B72AB82ABE2A29088A0028080A00C7
:100578008231C12A8431A024823108007C08203EBF
:10058800860001308700810154011D1DCC2ACD2A27
:10059800D92A7C08203E860001308700811440015A
:1005A80037088A0036080A00823154019D1CDD2A6A
:1005B800DE2AEA2A7C08203E8600013087000115E1
:1005C800400135088A0034080A0082317C08203E40
:1005D80086000130870001080319F32AF42AFB2A50
:1005E800400133088A0032080A008231FE2A843129
:1005F8008524823108005334793473347434653473
:100608006D34203470346F34773465347234653423
:10061800643420346F346E342E34203450346C34C7
:100628006534613473346534203465346E3474341D
:1006380065347234203479346F347534723420342C
:1006480066346934723473347434203463346F34E8
:100658006D346D3461346E3464343A340A340034A1
:1006680040019C01083098005130990040309A00B0
:1006780008309600D3309200EE309300FE3094009C
:10068800BE307E01CE008630C300C130B800E5011F
:10069800C401B901CF01E601BA01C501D001FF309B
:1006A800BB00FF30C600FF30D1003F30BC003F30F8
:1006B800C7003F30D200253098000F309C000B3027
:1006C8007D01CD000D30CB0008004001440803191E
:1006D8006E2B6F2B692B4508203E86000130870062
:1006E8000108F1007108C3004508203E8600033068
:1006F80087000108F1007108F2000130F10071086B
:10070800C50740304502031C8A2B8B2B8C2BC50157
:100718004E01991301304001C4024E019917720825
:10072800080040013D0803199A2B9B2B952B3E0886
:10073800A03E8600013087000108F1007108BC0066
:100748003E08203E8600043087000108F100710849
:10075800F2000130F1007108BE0740303E02031C70
:10076800B62BB72BB82BBE014E01991201304001B0
:10077800BD024E01991672080800F20040014008B7
:100788000319C72BC82BC22B4E01191ACC2BCD2B02
:10079800D12B720842019A00E92B19127208F10054
:1007A80040014208A03E860003308700710881009E
:1007B8000130F1007108C20740304202031CE52BEA
:1007C800E62BE72BC2010130C0024E0119160800C2
:1007D800F200400146080319F22BF32BED2B4E01D2
:1007E800191BF72BF82BFC2B720854019A00142CB8
:1007F80019137208F10040014808A03E8600023033
:100808008700710881000130F1007108C807403085
:100818004802031C102C112C122CC8010130C602EE
:100828004E01191708004001D6005208D800510897
:10083800D700A001A101312C5730D4005408C900B9
:100848005308D5005508CA0056088031A8208431BD
:1008580040014908A0074A08A13D570884005808E4
:1008680085001200031D392C3A2C202C2108D200B7
:100878002008D10008004030400146020318452CEA
:10088800462C5F2C4708A03E8600023087000108EE
:1008980054019A000130F00070084001C707403049
:1008A8004702031C582C592C5A2CC7010130F00060
:1008B8007008C607612C4E0119130800403040012A
:1008C80040020318682C692C822C4108A03E86003F
:1008D80003308700010842019A000130F0007008D7
:1008E8004001C10740304102031C7B2C7C2C7D2C2D
:1008F800C1010130F0007008C007842C4E011912A4
:10090800080054011908F0007C08203E86000330D6
:100918008700700881000130F0007008FC07403043
:100928007C02031C982C992C9A2CFC010130F000B5
:1009380070084001C407080042011908F00040018E
:100948003F08203E8600043087007008810001308F
:10095800F0007008BF0740303F02031CB42CB52CD0
:10096800B62CBF010130F0007008BD0708005B30ED
:100978004001DB005B08DE005A08D2005908D100AC
:100988005E30DB005B08D3000030843117248431EB
:1009980008008431FA24843183313423843184314A
:1009A800EC2484318231452284318231062284311B
:1009B80008004134543445343134003400340034B0
:1009C80000340034003441345434003400340034EA
:1009D800103051018D008F01910105309300900175
:1009E8009201101CF82CF92CF52C08004F019601E7
:1009F8009701980199019A019B019C019D010800AA
:100A080040014408031D092D0B2D01300C2D003029
:100A1800080040013D08031D122D142D0130152D2D
:100A28000030080082310622853182314522853125
:100A38000800FE0012001E00FE0B1E2D003464008C
:100A480080010131890B242D0034F30073088331B0
:100A5800C1238531080072084001BB007108BA0043
:100A6800080072084001B9007108B800080072084F
:100A78004001B5007108B400080072084001B700D1
:100A88007108B600080072084001B3007108B2008E
:100A9800080072084001B1007108B000080072082F
:100AA8004001AF007108AE00080072084001AB00B9
:100AB8007108AA00080072084001AD007108AC0076
:100AC800080072084001A9007108A8000800540134
:100AD8001D121D1608008431852485310800420145
:100AE8001D121D1608008431A02485310800080055
:020AF8000800F4
:020000040001F9
:0A000E009C3FFF3F9F3FFF3FFF3F75
:00000001FF
